:0200000490006A
:10200000B809002439230090F76E0090CF68009043
:10201000F56E009091250090D5860090000000009C
:10202000000000000000000000000000997A00900D
:10203000C527009000000000217000909B7A00905E
:102040005723009057230090572300905723009068
:102050005723009057230090572300905723009058
:102060005723009057230090572300909525009008
:102070005723009057230090572300905723009038
:102080005723009057230090572300905723009028
:102090005723009057230090572300905723009018
:1020A0005723009057230090572300905723009008
:1020B00057230090572300905723009057230090F8
:1020C00057230090572300905723009057230090E8
:1020D00057230090572300905723009057230090D8
:1020E00057230090572300900000000057230090D2
:1020F00057230090572300905723009057230090B8
:1021000057230090572300905723009057230090A7
:1021100057230090572300903D7C00905723009058
:102120005723009057230090572300905723009087
:102130005723009057230090572300905723009077
:10214000000000000000000000000000000000008F
:102150005723009057230090572300905723009057
:102160005723009057230090572300905723009047
:102170005723009057230090572300905723009037
:1021800057230090572300907580009057230090AC
:102190005723009057230090572300905723009017
:1021A0005723009057230090A125009057230090BB
:1021B00057230090572300905723009057230090F7
:1021C00057230090572300905723009057230090E7
:1021D00057230090572300905723009057230090D7
:1021E00057230090572300905723009057230090C7
:1021F00057230090572300905723009057230090B7
:1022000057230090572300905723009057230090A6
:102210005723009057230090572300905723009096
:102220005723009057230090572300900000000090
:102230005723009057230090000000005723009080
:102240005723009057230090572300905723009066
:102250005723009057230090572300905723009056
:102260005723009057230090572300905723009046
:102270005723009057230090572300900000000040
:102280005723009057230090572300900000000030
:10229000000000005723009000F002F800F03CF826
:1022A0000AA090E8000C82448344AAF10107DA45B1
:1022B00001D100F031F8AFF2090EBAE80F0013F0C7
:1022C000010F18BFFB1A43F00103184754680000C0
:1022D00074680000103A24BF78C878C1FAD8520751
:1022E00024BF30C830C144BF04680C607047000090
:1022F0000023002400250026103A28BF78C1FBD80F
:10230000520728BF30C148BF0B6070471FB506F0A9
:10231000E1FB1FBD10B510BD00F007F91146FFF736
:10232000F5FF06F017FA00F025F903B4FFF7F2FF06
:1023300003BC06F0E1F900000A4880470A488047DC
:102340000A480047FEE7FEE7FEE7FEE7FEE7FEE796
:10235000FEE7FEE7FEE7FEE705480649064A074BAB
:1023600070470000CD270090457B00909922009097
:10237000B8030024B8090024B8050024B8050024D7
:10238000704753EA020C00F069802DE9F04B4FF0E2
:102390000006002B1FBFB3FA83F503FA05F424FAF5
:1023A00005F65E4012BF1643B2FA82F502FA05F452
:1023B000C5F120051EBF22FA05FC44EA0C042035B5
:1023C00056EA044C4FEA144418BF641C4FF000084E
:1023D0004FF00009904271EB030C39D3002919BF6B
:1023E000B1FA81F701FA07F6B0FA80F700FA07F6BA
:1023F000C7F120071EBF20FA07FC46EA0C0620376B
:10240000B6FBF4FCA7EB0507103F07F01F0BCBF161
:1024100020060CFA0BFB2CFA06F644BFB346002646
:10242000202FA4BF5E464FF0000B5BEA060C08BFEE
:102430004FF0010B19EB0B09ABFB027C48EB0608D4
:10244000C01B06FB02CC0BFB03CC71EB0C01C1E7FC
:102450000B46024641464846BDE8F08B13B54FF0A7
:1024600000004FF00001AFF30080BDE81C40704752
:1024700010B5203AC0F00B80B1E81850203AA0E81F
:102480001850B1E81850A0E81850BFF4F5AF5FEA53
:10249000027C24BFB1E81850A0E8185044BF18C906
:1024A00018C0BDE810405FEA827C24BF51F8043BAD
:1024B00040F8043B08BF7047D20728BF31F8023B01
:1024C00048BF11F8012B28BF20F8023B48BF00F895
:1024D000012B70474FF0000200B513469446964614
:1024E000203922BFA0E80C50A0E80C50B1F1200127
:1024F000BFF4F7AF090728BFA0E80C5048BF0CC0D5
:102500005DF804EB890028BF40F8042B08BF704732
:1025100048BF20F8022B11F0804F18BF00F8012BA4
:1025200070477047704770477047754600F02CF849
:10253000AE4605006946534620F00700854618B0B0
:1025400020B5FFF709FFBDE820404FF000064FF02F
:1025500000074FF000084FF0000B21F00701AC46D8
:10256000ACE8C009ACE8C009ACE8C009ACE8C009F7
:102570008D46704710B50446AFF300802046BDE895
:102580001040FFF7D2BE00000048704758030024F7
:10259000FEE70000014800F0E7BD000094020024BF
:1025A000014800F031BA000024000024294A0168E3
:1025B00091423AD0274A1832914236D0254A3032D9
:1025C000914232D0234A483291422ED0214A603281
:1025D00091422AD01F4A7832914226D01D4A903229
:1025E000914222D01B4AA83291421ED01A4A9142EF
:1025F0001BD0194A1832914217D0174A30329142F3
:1026000013D0154A483291420FD0134A603291429A
:102610000BD0114A7832914207D00F4A9032914242
:1026200003D00D4AA832914211D1CAB21823103AF0
:10263000B2FBF3F26FF30901032A02F00703074A22
:10264000D25CC26500D9091D81650846704721F03A
:10265000FF01F9E71000024010040240DE8A0090FA
:1026600030B5224A012301689142CAB21BD01F4CE7
:102670001434A14217D01D4C2834A14213D01B4C56
:102680003C34A1420FD0194C5034A1420BD0174C0E
:102690006434A14207D0154C7834A14203D0134CC6
:1026A0008C34A1420CD11421114C083AB2FBF1F147
:1026B0000F4A803201F01F0504EB8101AB4010E0AE
:1026C0000C4D1824103A0D44B2FBF4F1A82D00D89B
:1026D0000831094A01F01F0402EB8101064AA340B8
:1026E0008032603080E80E0030BD0000085402588F
:1026F00000580258F0FBFDBF0008024010B50279F7
:10270000531E072B2DD8174C0168A1421BD0154C26
:102710001434A14217D0134C2834A14213D0114CC9
:102720003C34A1420FD00F4C5034A1420BD00D4C81
:102730006434A14207D00B4C7834A14203D0094C39
:102740008C34A14203D10849074C443102E00749C7
:10275000064C443104EB8202C0E91B21012199405F
:10276000416710BD08540258FC580258FC0802404A
:1027700010B583694FF0C074826A0146002053B1DE
:10278000B3F5005F15D072B1012A0CD0022A0AD02D
:10279000032A09D104E01AB1012A06D0022A03D182
:1027A000C96AC90100D5012010BDC96AA142FAD089
:1027B00010BD002AF7D0012AF2D0022AF3D0032A52
:1027C000F3D010BD704772B6FEE70000054805491A
:1027D0000839026842F00202026008688004FCD5F1
:1027E000704700000C480258F0B5D1E90843CD69A4
:1027F0000A68C2B10268254322F4F84213431D431C
:102800000560D1E90125D1E903364C692A434568C1
:10281000334389691A43EB0B2243DB030A431A4310
:1028200042600020F0BDD1E9012ED1E9036CD1E96D
:10283000057142EA0E0246EA0C0632433A430A4365
:1028400001682A4322431A436FF30E010A430260D0
:10285000E7E7426943F6FE739A4342EA4101416168
:102860000020704770B591E81C00C9686FF01F0523
:1028700006691A4305EB441444EA41210A4306EA77
:1028800045431A430261002070BD00002DE9F04F5E
:102890008B8A6FF00F05264C4FF07F4BD1F80C90D0
:1028A00004EB03536FF0FF044FEA042A1AB386685F
:1028B0004FEA09321F4FA2F580521A433E4032437D
:1028C0008260D1E900278E68521E05EB07150F8A3A
:1028D0002A43C56804EB06240E7E0AEB0743224315
:1028E0001A430BEB06610A4305F070431A43C260BA
:1028F0000020BDE8F08F91E804110F4E521E0F8AA0
:1029000005EB08152A4304EB0C2C06EB09350E7E6B
:1029100042EA0C022A4385680AEB074422431A4321
:102920000BEB06610A4305F070431A438260DFE750
:102930000000F0FFFF0F0FFF00F0FFFF70470000E7
:10294000F0B590F86020012A22D0C1EBC102012726
:1029500080F86070022380F8613000EB8202284D1D
:10296000138F168EB2F83CC0D46A1B05283244EA95
:10297000064643EA4C530A2C46EA03060AD0092CC1
:1029800008D0137B46EA036349B10B2C1AD01DE033
:102990000220F0BDD36803F07F433343F4E70168BE
:1029A0004C6AAC431C434C62016813688B615168EC
:1029B0000A2901D009291BD1D168026821F07F4181
:1029C000916215E0118B0F4D43EA81430168CC6998
:1029D000AC431C43CC61016813680B6151680A2940
:1029E00001D0092904D1D168026821F07F41116228
:1029F000002180F8617080F860100846F0BD00008A
:102A00000F0033FF0F003FFF2DE9F0470446006839
:102A100000274FF004084FF0010946680568F107E8
:102A200014D0E90512D5036823F480730360606E47
:102A300040F0010060662068C0F8089084F861806A
:102A400084F86070616A09B120468847B00615D5E0
:102A5000A80413D520682022036823F400530360E0
:102A600020688260606E40F00200606684F86180D9
:102A700084F86070616A09B120468847300715D52F
:102A8000280513D520680822036823F40063036037
:102A900020688260606E40F00400606684F86180A7
:102AA00084F86070616A09B12046884770070CD5C8
:102AB00068050AD52068026822F4806202602068F6
:102AC000C0F80880204600F071F8B00713D5A805BB
:102AD00011D520680222036823F400730360206884
:102AE0008260606E606684F8619084F86070216A2C
:102AF00009B120468847F00612D5E80410D52068B1
:102B0000016821F480510160226810219160616E9A
:102B1000616684F86190204684F86070FFF70EFFCC
:102B2000BDE8F0872DE9F041040004D094F861007D
:102B3000002518B107E00120BDE8F081204684F8A7
:102B4000605000F035F8184E022084F8610001232F
:102B5000D4E90010D4F81CC040F207120F6840EA14
:102B60000C003740384308602068A769A168466BAD
:102B700039439643314341632068E268016C6FF347
:102B80000F01114301642068218AA28A466B09055E
:102B900041EA425126F4401211434163656684F8CC
:102BA00061300020C8E70000BFFFF8FF7047000059
:102BB00008B500680B49884212D10B48016841F002
:102BC0001001016000680022052100F01000009053
:102BD0005A2001F00BFCBDE808405A2001F0F8BB78
:102BE00008BD000000100052D44402582DE9F84FEF
:102BF000044601F0CBF900903CB194F8350002286E
:102C000006D0802161650020E4E00120BDE8F88F56
:102C1000C74DC74EC649183520683036DFF81483D3
:102C2000DFF814938842DFF814A3DFF814B328D038
:102C3000A84226D0B04224D0404522D0484520D0DA
:102C400050451ED058451CD0BD4A1832904218D06D
:102C5000BC4A904215D0BB4A1832904211D0B94AB2
:102C6000303290420DD0B74A4832904209D0B54A2E
:102C70006032904205D0B34A7832904201D0B14AD6
:102C80009032026822F001020260206888422ED051
:102C9000A8422CD0B0422AD0404528D0484526D062
:102CA000504524D0584522D0A54A183290421ED013
:102CB000A44A90421BD0A34A1832904217D0A14A8E
:102CC0003032904213D09F4A483290420FD09D4AF2
:102CD000603290420BD09B4A7832904207D0994A9A
:102CE0009032904203D0974AA832904209D10268AC
:102CF00022F01E0202602068426922F080024261D6
:102D000003E0026822F00E02026027688849384614
:102D10008F424DD0A8424BD0B04249D0404547D019
:102D2000484545D0504543D0584541D08449183195
:102D300088423DD0834988423AD08249183188423E
:102D400036D080493031884232D07E49483188427D
:102D50002ED07C49603188422AD07A497831884225
:102D600026D078499031884222D07649A8318842CD
:102D70001ED0754988421BD073491431884217D040
:102D800071492831884213D06F493C3188420FD0B5
:102D90006D49503188420BD06B496431884207D06D
:102DA00069497831884203D067498C318F4214D108
:102DB000206E016821F4807101600EE001F0E6F8F8
:102DC0000099401A052808D92022626503210020B5
:102DD00084F8351084F8340017E73868C007EDD15F
:102DE000534A0121206890422ED0A8422CD0B042F4
:102DF0002AD0404528D0484526D0504524D05845B3
:102E000022D04F4B183398421ED04E4B98421BD0C5
:102E10004C4B1833984217D04A4B3033984213D05A
:102E2000484B483398420FD0464B603398420BD002
:102E3000444B7833984207D0424B9033984203D0AA
:102E4000404BA833984208D194F85C703F23A06DA2
:102E500007F01F07BB40836007E094F85C30A06D6B
:102E600003F01F0301FA03F34360206890424DD042
:102E7000A8424BD0B04249D0404547D0484545D004
:102E8000504543D0584541D02D4A183290423DD04C
:102E90002C4A90423AD02B4A1832904236D0294AD6
:102EA0003032904232D0274A483290422ED0254AC2
:102EB000603290422AD0234A7832904226D0214A6A
:102EC0009032904222D01F4AA83290421ED01E4A11
:102ED00090421BD01C4A1432904217D01A4A283212
:102EE000904213D0184A3C3290420FD0164A5032CA
:102EF00090420BD0144A6432904207D0124A783282
:102F0000904203D0104A8C3290420BD1D4E919027E
:102F10004260E06E30B1026822F480720260D4E94F
:102F20001C024260002084F8351084F834006DE6FD
:102F30001000024058000240700002408800024029
:102F4000A000024010040240085402582DE9F05F2E
:102F500028B190F83510022904D080214165012064
:102F6000BDE8F09F764A764BDFF8D4C1183201688D
:102F70003033744CDFF8D0B16145744D744E754FE9
:102F8000DFF8D4E1DFF8D4A1DFF8D49131D0914259
:102F90002FD099422DD0A1422BD0594529D0A942FA
:102FA00027D0B14225D0B94223D0DFF8AC81A8F1B7
:102FB000780841451DD0DFF8A081A8F1600841459F
:102FC00017D0DFF89481A8F14808414511D0DFF807
:102FD0008881A8F1300841450BD0DFF87C81A8F149
:102FE0001808414505D0714503D0514501D04945E8
:102FF0002AD14FF0040880F8358061451FD09142F6
:103000001DD099421BD0A14219D0594517D0A942D1
:1030100015D0B14213D0B94211D04F48783881420F
:103020000DD04D486038814209D04B484838814224
:1030300005D049483038814201D0474818380868DF
:1030400020F00100086078E0D1F8008028F0010845
:10305000C1F800800168D1F8008028F00E08C1F89E
:1030600000800168614546D0914244D0994242D0E7
:10307000A14240D059453ED0A9423CD0B1423AD0BD
:10308000B94238D0344A783A914234D0324A603A20
:10309000914230D0304A483A91422CD02E4A303AB0
:1030A000914228D02C4A183A914224D0714522D01E
:1030B000514520D049451ED02A4A91421BD0294A69
:1030C0001432914217D0274A2832914213D0254A10
:1030D0003C3291420FD0234A503291420BD0214AC8
:1030E0006432914207D01F4A7832914203D01D4A80
:1030F0008C32914218D1026E0121136823F480733F
:10310000136090F85C30826D03F01F0399405160AA
:10311000D0E919124A60C16E31B10A6822F4807296
:103120000A60D0E91C124A600122016D002380F878
:10313000352080F8343001B18847002010E70000C6
:103140001000024058000240700002408800024017
:10315000A0000240B800024088040240A0040240DF
:10316000B8040240085402582DE9FC5F0446F74EAB
:103170000020DFF8D88300904FF41652F44808F18D
:103180001808A56DDFF8C493DFF8C0A3016809F142
:10319000300920680AF1480AB1FBF2F1B04201910E
:1031A0002F68D5F800C0DFF8ACB335D0414688426F
:1031B00032D0484530D050452ED058452CD0E54926
:1031C0001831884228D0E3493031884224D0E1497F
:1031D0004831884220D0E04988421DD0DE4918316C
:1031E000884219D0DC493031884215D0DA4948315B
:1031F000884211D0DFF860E30EF1600E70450BD00D
:10320000D54A7832904207D0D34B9033984203D0BE
:10321000D149A83188427DD194F85C20082102F080
:103220001F0201FA02F23A424AD0B04232D040457F
:1032300030D048452ED050452CD058452AD0C54ACC
:103240001832904226D0C34A3032904222D0C14A2E
:10325000483290421ED0C04A90421BD0BE4A18321B
:10326000904217D0BC4A3032904213D0BA4A48320A
:1032700090420FD0B84A603290420BD0B64A7832B2
:10328000904207D0B44A9032904203D0B24AA8325A
:10329000904203D1026802F0040202E0026802F0E8
:1032A00008026AB1026822F00402026094F85C002D
:1032B00000F01F008140A960606D40F00100606572
:1032C00094F85C00012100F01F008140394240D099
:1032D0002068B04234D0404532D0484530D05045C7
:1032E0002ED058452CD09B4A1832904228D0994A6B
:1032F0003032904224D0974A4832904220D0964AA9
:1033000090421DD0944A1832904219D0924A3032DD
:10331000904200E0AFE113D08F4A483290420FD084
:103320008D4A603290420BD08B4A7832904207D05F
:10333000894A9032904203D0874AA83290427DD188
:10334000406910F0800F04D0A960606D40F0020069
:10335000606594F85C00042100F01F008140394250
:103360003ED02068B04232D0404530D048452ED0C3
:1033700050452CD058452AD0764A1832904226D053
:10338000744A3032904222D0724A483290421ED063
:10339000714A90421BD0704A1832904217D06E4A40
:1033A0003032904213D06C4A483290420FD06A4A71
:1033B000603290420BD0684A7832904207D0664A19
:1033C0009032904203D0644AA83290424ED10068B5
:1033D00010F0020F04D0A960606D40F00400606539
:1033E00094F85C00102100F01F008140394258D051
:1033F0002068B04234D0404532D0484530D05045A6
:103400002ED058452CD0534A1832904228D0514AD9
:103410003032904224D04F4A4832904220D04E4A17
:1034200090421DD04C4A1832904219D04A4A30324C
:10343000904215D0484A4832904200E014E00FD044
:10344000454A603290420BD0434A7832904207D0CE
:10345000414A9032904203D03F4AA832904207D16D
:10346000006800F0080006E0006872E70068B7E74F
:10347000006800F00400A0B1A96020680168490359
:1034800004D50068000308D5A16C07E00168C905F0
:1034900003D4016821F008010160216C09B12046C4
:1034A000884794F85C00202100F01F0081403942D9
:1034B00079D02068B04232D0404530D048452ED037
:1034C00050452CD058452AD0224A1832904226D056
:1034D000204A3032904222D01E4A483290421ED0BA
:1034E0001D4A90421BD01C4A1832904217D01A4AEB
:1034F0003032904213D0184A483290420FD0164AC8
:10350000603290420BD0144A7832904207D0124A6F
:103510009032904203D0104AA832904203D1006802
:1035200000F0100002E0006800F00200B0B3A960F3
:1035300094F835000428206801680FD049037ED52F
:10354000006800032BD5616C2AE0000010000240E7
:1035500018000024700002401004024021F01601FF
:1035600001602068416921F080014161206C08B947
:10357000A06C20B12068016821F00801016094F876
:103580005C303F21012003F01F0300229940A96015
:1035900084F8350084F83420216D65E003E0E16BA8
:1035A00009B120468847606D00287DD0606DC00756
:1035B00059D02068042184F83510B0422BD0404502
:1035C00029D0484527D0504525D0584523D09D497E
:1035D000884220D09B49183188421CD0994930310B
:1035E000884218D09849884215D0974918318842A6
:1035F00011D09549303188420DD0934948318842E5
:1036000009D091496031884205D08F49783188428C
:1036100001D08D499031016821F0010101602068DD
:103620000099019A491C0091914202D80168C9078A
:10363000F6D10068C00710D003200FE0FFE7016853
:10364000C905ACD403680121002223F010030360F4
:1036500084F8351084F83420A1E7012084F835007F
:10366000002084F83400E16C00291DD002B020460F
:10367000BDE8F05F0847754988421DD07349143191
:10368000884219D071492831884215D06F493C31A0
:10369000884211D06D49503188420DD06B49643158
:1036A000884209D0694900E084E07831884203D03B
:1036B00066498C3188427DD194F85C80042701688A
:1036C00008F01F0807FA08F717EA0C0F009746D012
:1036D0004F0744D500980F04686003D5C8033CD554
:1036E000A16CC1E7880638D42068B0422DD0554976
:1036F0006039884229D0484527D0504525D05845C3
:1037000023D05049884220D04E49183188421CD0DD
:103710004C493031884218D04B49884215D04A492B
:103720001831884211D04849303188420DD046497D
:103730004831884209D0704507D0904205D0984260
:1037400003D04149A831884203D1016821F0080122
:1037500002E0016821F004010160216C84E7022786
:1037600007FA08F717EA0C0F00974ED08F074CD5D1
:1037700000980F04686003D5C80344D4616C73E7F4
:10378000880640D42068B0422FD02E496039884244
:103790002BD0484529D0504527D0584525D0294918
:1037A000884222D02749183188421ED0254930311D
:1037B000884200E044E018D02349884215D02249CD
:1037C0001831884211D02049303188420DD01E492D
:1037D0004831884209D0704507D0904205D09842C0
:1037E00003D01949A831884203D1016821F014019E
:1037F00002E0016821F00A010160012184F835101E
:10380000002084F83400E16B2EE7082202FA08F267
:1038100012EA0C0F14D0090712D5016821F00E012D
:10382000016094F85C100120002201F01F0100FAF1
:1038300001F16960606584F8350084F8342012E78E
:10384000BDE8FC9F88000240100402400854025862
:103850002DE9F05F044600F099FB002C07467DD06F
:10386000E34E022120684FF00308DFF888934FF001
:103870000005DFF884A3B042DFF880B334D0DC4A1F
:103880001832904230D048452ED050452CD0584563
:103890002AD0DA4A1832904226D0D84A30329042A2
:1038A00022D0D64A483290421ED0D54A90421BD0F0
:1038B000D34A1832904217D0D14A3032904213D0B6
:1038C000CF4A483290420FD0CD4A603290420BD05E
:1038D000CB4A7832904207D0C94A9032904203D006
:1038E000C74AA83290427DD184F83510B04284F89E
:1038F00034502ED0BE49183188422AD0484528D0AD
:10390000504526D0584524D0BC491831884220D093
:10391000BA49303188421CD0B8494831884218D061
:10392000B749884215D0B6491831884211D0B449F8
:10393000303188420DD0B2494831884209D0B0496F
:103940006031884205D0AE497831884201D0AC4917
:103950009031016821F00101016008E027E100BF1A
:1039600000F014FBC01B052801D920211CE12068B0
:103970000068C007F4D104F108002168D4E9053CCF
:103980008E4685C809681043D4E907281F43636A37
:1039900038439C4F40EA0C001043394040EA08008D
:1039A000042B40EA010003D1D4E90B121143084370
:1039B000954909686FF30F01B1F1005F0FD361689A
:1039C000A1F12902052A08D9163A032A05D9083A8D
:1039D000012A02D94F39032901D840F48010CEF8CA
:1039E000000000E023E02068676A4069042F20F0AF
:1039F000070047EA00070DD1D4E90A01074349B19E
:103A00002046FEF7B5FE28B140206065012184F80C
:103A10003510CCE0206847612046FEF7C7FD94F8DA
:103A20005C203F2102F01F029140816054E0774A00
:103A300090421BD0754B1433984217D0734B2833E8
:103A4000984213D0714B3C3398420FD06F4B503398
:103A500098420BD06D4B6433984207D06B4B783350
:103A6000984203D0694B8C3398427DD184F835104D
:103A700084F83450664B0168A26801EA030E402ABC
:103A800073D0802A72D00022D4E90378D4E90531BA
:103A900042EAD70242EAD8085C4AD4E9077C48EAFD
:103AA000D30848EAD10141EAD701524241EA1C1148
:103AB000142341EA0E01016020681044B0FBF3F0CA
:103AC0008000E0652046FEF771FD94F85C2001213E
:103AD00002F01F02914041602068B04257D0444933
:103AE0001831884253D0484551D050454FD05845A1
:103AF0004DD042491831884249D04049303188423E
:103B000045D03E494831884241D03D4988423ED067
:103B10003B49183188423AD039493031884236D051
:103B200037494831884232D03549603188422ED0F9
:103B30003349783188422AD031499031884226D0A1
:103B40002F49A831884222D0304988421FD02F49BE
:103B5000143188421BD02D492831884217D02B4977
:103B60003C31884213D002E01DE017E018E02749FD
:103B7000503188420BD025496431884207D023490F
:103B80007831884203D021498C31884229D120469E
:103B9000FEF766FDA06880280CD00CE0102273E7C9
:103BA0004FF4804270E74021616584F83580012040
:103BB000BDE8F09F6560216E20790860D4E91901A5
:103BC00041606068401E072808D82046FEF796FD31
:103BD000E06E0560D4E91C01416002E0E5662567FE
:103BE00065670120656584F835000020E0E7000086
:103BF00010000240400002405800024070000240A5
:103C0000100402403F8010FE0010005C085402586F
:103C10000F00FEFF70B5044600F0B8F90546601CC1
:103C200002D004480078044400F0B0F9401BA042E0
:103C3000FAD370BD0C0000242DE9F043B7B0142175
:103C400030A8FEF747FC3348016800295FD1012402
:103C50000460C0216846FEF73DFC0021684622064C
:103C600088461291CDE9002100F072FD08B1FEF7FF
:103C7000AAFD2948016841F48051016000680225CD
:103C800032AA00F4805035904FF68370CDE93005AC
:103C9000032622480C2782E8D00030A900F048F81B
:103CA00032AA48F23700CDE93005DFF8749030A928
:103CB00082E8D000484600F03BF832AA4CF203708C
:103CC000CDE93005174830A982E8D00000F030F87F
:103CD00032AA4FF63F00CDE93005134830A982E8FB
:103CE000D00000F025F830A8E90180E82201CDE9F4
:103CF000336730A9484600F01BF8E02032AACDE92E
:103D000030050A4830A982E8D00000F011F837B039
:103D1000BDE8F08304000024D44402580010025887
:103D200000180258000C025800140258001C0258D7
:103D30002DE9F84F03247F4D00234FF001094FF088
:103D4000B04B4FF00F0AEDE009FA03F632407AD09B
:103D50000F7907F00307012F01D0022F19D18768CF
:103D60004FEA430ED1F80CC004FA0EF827EA080710
:103D70000CFA0EFC4CEA070CC0F808C0D0F804C0DE
:103D80000F792CEA060CC7F300179F4047EA0C078F
:103D900047600E79F643B60702D18E68012E0BD02C
:103DA000C6684FEA43088F6804FA08FC26EA0C0646
:103DB00007FA08F73743C7600E7906F00306022EAC
:103DC00012D1DE080F694FEA437C00EB8606B64647
:103DD000366A4FEADC6C0AFA0CF807FA0CF726EAA6
:103DE00008063743CEF820700F7906684FEA43087B
:103DF00007F0030704FA08FC07FA08F726EA0C069E
:103E0000374307604E6816F4403F1CD04A4E37686F
:103E100047F00207376036689F0706F002060096F3
:103E200023F0030606F1B046B6463F0FD6F8086405
:103E3000DFF808810AFA07FC404526EA0C0603D1A0
:103E40004FF0000C41E06CE0DFF8F4C0604502D1B7
:103E50004FF0010C39E0DFF8ECC0604502D14FF0C3
:103E6000020C32E0DFF8E0C0604502D14FF0030CF5
:103E70002BE0DFF8D8C0604502D14FF0040C24E0FD
:103E8000DFF8CCC0604502D14FF0050C1DE0DFF833
:103E9000C4C0604502D14FF0060C16E0DFF8B8C090
:103EA000604502D14FF0070C0FE0DFF8B0C060456D
:103EB00002D14FF0080C08E0DFF8A4C0604502D141
:103EC0004FF0090C01E04FF00A0C0CFA07FC4CEA29
:103ED000060CCEF808C44F68DBF80060FF0226EA43
:103EE000020600D516435F46CBF80060D1F804C047
:103EF000DBF804605FEA8C2C26EA020600D5164344
:103F00007E606E684F6826EA0206BF0300D516433E
:103F10006E602E684F6826EA0206FF0300D516433E
:103F20002E605B1C0A6832FA03F67FF40DAFBDE821
:103F3000F88F000080000058F44402580000025836
:103F40000004025800080258000C025800100258E1
:103F50000014025800180258001C02580020025891
:103F600000240258426921EA02030A4043EA02415E
:103F7000816170470AB1816170470904FBE7000065
:103F800001480068000C70470010005C0148806820
:103F9000704700000C000024024881680278114438
:103FA000816070470C000024032010B500F03EFA39
:103FB00001F046FA0F4A104914681368C4F303224B
:103FC00003F00F038A5CC95C02F01F0201F01F01BD
:103FD000D0400A4A20FA01F11160094908600F2017
:103FE00000F010F808B1012010BD00F0E3F9002046
:103FF00010BD0000184402580E8B00901C000024D5
:104000001800002410B5102804468AB02CD20022D3
:104010000146362000F0EAF9362000F0D9F91748B9
:1040200004601748016841F010010160006809A9A7
:1040300000F010000890684601F08EF90598B0B1C4
:1040400001F0DAF940000F4900220F4CB0FBF1F10A
:104050000E4840F2E7330460C0E90332491EC0E96C
:10406000011201F001FE28B101200AB010BD01F0DB
:10407000C3F9E8E7054801F029FEF6E7100000243F
:10408000E844025840420F00001000400C03002496
:104090002DE9F041044690F8A00016460F4601288D
:1040A0001DD0012584F8A050022084F8A10006EB61
:1040B000860000EBC600342204EB80003830FEF7A7
:1040C000D7F932463946204602F002FC216800202A
:1040D0004D6284F8A15084F8A000BDE8F081022070
:1040E000FBE72DE9F041040004D094F8A10000257D
:1040F00018B107E00120BDE8F081204684F8A05007
:1041000000F050F8022084F8A100206801238169A2
:1041100021F070418161D4E90010D4E9027226696E
:10412000384332438E691043304388612268A08A45
:10413000A16941EA004191602268A08B216A41EAAD
:104140000041D1602268A08CA16A41EA004111615E
:104150002268A08D216B41EA00415161226894F8E8
:10416000351094F83600D66A000406F07F46D66211
:10417000226840EA012094F83460D16A3143014357
:10418000D1622068416B41F006014163206881697A
:1041900041F001018161C4F8A45084F8A1300020ED
:1041A000A9E700002DE9F041B6B0044614216846A5
:1041B000FEF790F9C02106A8FEF78CF94E49206859
:1041C00088427CD102244204062001261096CDE9C3
:1041D000110414A913940023179347021D464FF4AA
:1041E000007881E88101CDE9062306A800F0B0FA45
:1041F00008B1FEF7E8FA4148016841F008010160A2
:10420000006800F0080005903C48001F016841F478
:1042100080710160016801F480710591016841F0CD
:1042200080010160016801F080010591016841F0A1
:1042300004010160016801F004010591016841F089
:1042400001010160016801F001010591016841F07F
:1042500040010160016801F040010591016841F0F1
:1042600020010160006803260E27694600F0200047
:10427000059040F2F7608DE8F1002148FFF758FD06
:104280004FF41E4069468DE8F1001E48FFF750FDCF
:104290000A21CDF800801C48CDE90361CDE9014534
:1042A0006946FFF745FD0D21DFF860804FF480700F
:1042B000CDE903618DE831006946404600E017E032
:1042C000FFF736FDC02069468DE8F1001048FFF782
:1042D0002FFD4FF4806069468DE8F1000D48FFF72F
:1042E00027FD402069468DE8F1004046FFF720FD9C
:1042F00036B0BDE8F081000000100050E4440258E0
:1043000000200258001C0258000802580000025801
:104310000018025800140258154BF0B5083B4278BB
:1043200013491A600B680A1F23F001030B604368EE
:104330001360057BC67A827A437B2D07847B45EA2E
:104340000665C77B90F809C0067A90F800E045EA58
:10435000C24040EA834040EA444040EA074040EA25
:104360000C2040EA460040EA0E000860F0BD000064
:10437000A0ED00E0BFF35F8F044800210368034A0B
:1043800023F48033036070321160704724ED00E045
:10439000074A40F00100064970321060086840F496
:1043A00080300860BFF34F8FBFF36F8F70470000FE
:1043B00024ED00E0054808B5016841F00201016004
:1043C000006800F00200009008BD0000F4440258AC
:1043D000002809DB410900F01F028900012001F1DA
:1043E000E0219040C1F80001704700000E4BF0B48E
:1043F0001B680D46C3F30223C3F10706042E00D940
:104400000426191D072901D2002300E0DB1E012428
:1044100004FA06F19C40491E2940641E994014404C
:104420002143F0BC04F057B90CED00E0064900F060
:10443000070210B54FF6FF040868044B204040EA1D
:1044400002201843086010BD0CED00E00000FA05E2
:10445000134970B50A68D243520705D5096801F0BF
:104460000701814213D118E00A6822F007020243D3
:104470000A60FFF78BFD0A4D4FF47A760446083D3B
:1044800007E000BFFFF782FD001BB04201D9012009
:1044900070BD2868C0438004F4D4002070BD0000C3
:1044A0000C48025810B500F085FF05490968054A17
:1044B000C1F30211515C01F01F01C84010BD0000A2
:1044C000204402580E8B0090494930B5484C0B1DD2
:1044D0000A68143409681D68246802F00303C5F3F0
:1044E0000012C1F30531C4F3CC04002914FB02F21D
:1044F00000EE102AF8EE400A75D03F4A9FED3D1AB3
:10450000B7EE000A6BB1DFED3D1A012B01D0022B93
:1045100064D002EE101A1168F8EE422A81EEA22A47
:1045200021E0334C283C23689B0612D5344B246889
:1045300001EE901A1168C4F3C104F8EE612AE34059
:1045400001EE903AC1F30801F8EE611A81EEA22A59
:104550000BE001EE901ADFED2B2A00BFF8EE611A96
:10456000116882EEA12AC1F3080101EE901A1168C8
:10457000F8EE611A40EE811A71EE800A62EE200AAE
:10458000C1F3462101EE101AB8EE411A31EE001ABD
:10459000C0EE811ABCEEE11A80ED001A1168C1F379
:1045A000064101EE101AB8EE411A31EE001AC0EEC3
:1045B000811ABCEEE11A80ED011A1168C1F306619F
:1045C00001EE101AB8EE411A31EE000A80EE801AA0
:1045D000BCEEC10A80ED020A30BD04E001EE901A83
:1045E000DFED092ABAE70021016041608160F3E74D
:1045F0002844025800000039384402580024744A04
:104600000090D0030024744C20BCBE4B494930B507
:10461000484C0B1D0A681C3409681D68246802F0A8
:104620000303C5F30022C1F30551C4F3CC040029F0
:1046300014FB02F200EE102AF8EE400A75D03F4A51
:104640009FED3D1AB7EE000A6BB1DFED3D1A012B6D
:1046500001D0022B64D002EE101A1168F8EE422A43
:1046600081EEA22A21E0334C283C23689B0612D518
:10467000344B246801EE901A1168C4F3C104F8EEBB
:10468000612AE34001EE903AC1F30801F8EE611AA5
:1046900081EEA22A0BE001EE901ADFED2B2A00BF7B
:1046A000F8EE611A116882EEA12AC1F3080101EE49
:1046B000901A1168F8EE611A40EE811A71EE800AC4
:1046C00062EE200AC1F3462101EE101AB8EE411A3B
:1046D00031EE001AC0EE811ABCEEE11A80ED001A2C
:1046E0001168C1F3064101EE101AB8EE411A31EE1D
:1046F000001AC0EE811ABCEEE11A80ED011A1168B1
:10470000C1F3066101EE101AB8EE411A31EE000A4B
:1047100080EE801ABCEEC10A80ED020A30BD04E0D2
:1047200001EE901ADFED092ABAE70021016041602D
:104730008160F3E7284402580000003940440258E1
:104740000024744A0090D0030024744C20BCBE4B5B
:104750002DE9FE4F0546DFF8E48350F8081B0024DE
:10476000F64FC943019005F12800264608F12408B8
:10477000009008011DD4A86E50B1B0F5801F0CD078
:10478000B0F5001F0ED0B0F5401F1ED001240FE081
:10479000386840F40030386017E00198022102F0D8
:1047A00041FC03E00098022102F0CCFC04000CD094
:1047B00026462888C043C00523D4A86D05281ED2EC
:1047C000DFE800F00C11161B1B00AA6ED8F80010D1
:1047D00021F440111143C8F80010EAE7386840F4AA
:1047E0000030386009E00198002102F01BFC03E072
:1047F0000098002102F0A6FC044674B100E00124F8
:1048000026462888C043800528D4E86D80281ED01D
:104810000CDC90B140280ED114E0AA6DD8F800103D
:1048200021F007011143C8F80010EAE7C02813D0AF
:10483000B0F5807F10D001240FE0386840F40030DC
:10484000386009E00198002102F0ECFB03E00098D9
:10485000002102F077FC04469CB126462888DFF848
:10486000DC92C04309F12C0940052CD4D5F8A800EE
:10487000B0F5800F20D00DDCA0B1B0F5001F0FD136
:1048800015E0EA6DD8F8001021F4E0711143C8F882
:104890000010E3E7B0F5C00F13D0B0F5000F10D053
:1048A00001240FE0386840F40030386009E00198D6
:1048B000002102F0B7FB03E00098002102F042FC67
:1048C00004467CB126462888C04300052DD4D5F87F
:1048D000AC00B0F1007F21D00EDCA8B1B0F1807F38
:1048E00010D116E0D5F8A820D9F8001021F4600105
:1048F0001143C9F80010E6E7B0F1407F13D0B0F1E2
:10490000806F10D001240FE0386840F40030386028
:1049100009E00198002102F085FB03E000980021E6
:1049200002F010FC044674B126462868C04380019A
:104930001FD4E86CD8B110280FD0202812D030280E
:1049400015D0012414E0D5F8AC20D9F8001021F0DE
:10495000E0611143C9F80010E7E7386840F400301F
:10496000386004E00198022102F05CFB044674B157
:1049700026462888C043C0042BD4286EB0F5005FBB
:1049800020D00DDCA0B1B0F5805F0FD115E06B48F1
:10499000EA6C2030016821F0300111430160E8E742
:1049A000B0F5405F13D0B0F5804F10D001240FE078
:1049B000386840F40030386009E00198002102F0C6
:1049C00031FB03E00098002102F0BCFB04468CB1EF
:1049D00026462888C043800429D4686EB0F5403F3D
:1049E00023D010DC08B3B0F5803F14D0B0F5003F01
:1049F0000FD115E02A6ED8F8001021F4E0411143E0
:104A0000C8F80010E5E7B0F5802F0ED0B0F5A02F64
:104A10000BD001240AE00198012102F003FB03E01E
:104A20000098012102F08EFB044694B126462888A6
:104A3000C04340042AD4D5F8B000B0F1405F23D081
:104A400010DC08B3B0F1805F14D0B0F1005F0FD17B
:104A500015E06A6ED8F8001021F4E0211143C8F87F
:104A60000010E4E7B0F1804F0ED0B0F1A04F0BD0B2
:104A700001240AE00198012102F0D4FA03E0009831
:104A8000012102F05FFB044674B126462888C0432A
:104A900000041FD4286FD8B1B0F1805F0ED0B0F100
:104AA000005F10D0012414E0D5F8B020D9F8001030
:104AB00021F0E0411143C9F80010E7E7386840F4FD
:104AC0000030386004E00198012102F0ABFA04469E
:104AD00074B126462868C043C0011ED4A86CD0B16A
:104AE00001280ED0022811D0032814D0012413E08D
:104AF0002A6FD8F8001021F040511143C8F8001077
:104B0000E8E7386840F40030386004E0019802219A
:104B100002F088FA0446ACB126462868DFF81CB0DB
:104B2000C043ABF11C0B400252D40548016841F46C
:104B300080710160FFF72AFA824611E02C44025886
:104B400000480258FA48AA6C016821F00301114399
:104B50000160E2E7FFF71AFAA0EB0A00642835D8F3
:104B6000F4480068C005F5D58CBBDFF8C4A3B5F8E0
:104B7000B4100AF1240ADAF8000001F4407100F4DC
:104B80004070884211D0DAF80010DAF8002021F4E1
:104B9000407142F48032CAF80020DAF8002022F492
:104BA0008032CAF80020CAF80010D5F8B400B0F579
:104BB000807F1AD1FFF7EAF9029012E0FFF7E6F9D9
:104BC0000299411A41F2883081420AD903242646CB
:104BD0002878DFF85CA3C0430AF1080AC00721D097
:104BE0003CE0DAF800008007E8D5D5F8B410C1F34E
:104BF0000120032858460DD0016821F47C51016042
:104C0000B5F8B420DAF80010C2F30B021143CAF869
:104C10000010DDE7C84A036802EA111223F47C5150
:104C20001143ECE7E86F182816D005DCA0B108287E
:104C300008D0102804D10AE020280DD028280BD055
:104C400001240AE00198012102F0ECF903E0009848
:104C5000012102F077FA044664B126462878C04361
:104C600080071ED4A86F062819D2DFE800F0160CC2
:104C700011161616EA6FDAF8001021F03801114308
:104C8000CAF80010EAE70198012102F0CBF903E02D
:104C90000098012102F056FA04467CB100E001249C
:104CA00026462878C04340071FD4D5F8940006282C
:104CB00019D2DFE800F0160C11161616AA6FDAF8F2
:104CC000001021F007011143CAF80010E9E701982C
:104CD000012102F0A7F903E00098012102F032FA65
:104CE0000446A4B100E0012426462878C04380068B
:104CF0002BD4D5F89000B0F1405F24D011DC10B374
:104D0000B0F1805F15D0B0F1005F10D116E0D5F89A
:104D10009420D9F8001021F007011143C9F80010C0
:104D2000E3E7B0F1804F0ED0B0F1A04F0BD00124DB
:104D30000AE00198002102F075F903E000980221D1
:104D400002F000FA044694B126462878C043400693
:104D50002BD4D5F89C00B0F5406F24D011DC10B3F3
:104D6000B0F5806F15D0B0F5006F10D116E0D5F812
:104D70009020DAF8001021F0E0411143CAF8001049
:104D8000E3E7B0F5805F0ED0B0F5A05F0BD0012453
:104D90000AE00198002102F045F903E000980221A1
:104DA00002F0D0F9044694B126462878C0430006A4
:104DB0002BD4D5F8A000B0F5C04F24D011DC10B32F
:104DC000B0F5005F15D0B0F5804F10D116E0D5F8E2
:104DD0009C20D9F8001021F4E0511143C9F80010CB
:104DE000E3E7B0F5004F0ED0B0F5204F0BD0012413
:104DF0000AE00198002102F015F903E00098022171
:104E000002F0A0F9044654B126462878C0430007B2
:104E10001ED4D5F88400B0F5805F0AD00FE0D5F835
:104E2000A020D9F8001021F460411143C9F8001006
:104E3000EBE70098022102F085F900B10126D5F8D0
:104E40008420DAF8001021F440511143CAF8001010
:104E50002878C043C00613D4D5F89800B0F5807FF9
:104E600005D10098022102F06DF900B10126D5F8B4
:104E70009820D9F8001021F440711143C9F80010AE
:104E80002868C043000316D4D5F8A40038B1B0F5A3
:104E9000803F09D0B0F5003F0BD001240AE0019813
:104EA000002102F0BFF803E00098022102F04AF965
:104EB00004468CB126462868C043400322D4D5F866
:104EC0008800B0F5801F11D0B0F5001F13D0B0F5E9
:104ED000401F15D0012414E0D5F8A420D9F8001003
:104EE00021F440311143C9F80010E4E7386840F478
:104EF0000030386004E00098012102F023F90446F4
:104F00005CB126462868C043C00323D4286DA8B1ED
:104F1000B0F5803F17D001241BE0D5F88820DAF8DF
:104F2000001021F440111143CAF80010EAE7000014
:104F30004C44025800480258CFFFFF00386840F444
:104F40000030386004E00198022102F06BF804465A
:104F5000E4B126462868C043800005D400980221A9
:104F600002F0F0F800B101262868C04380031BD48A
:104F7000D5F88000B0B1B0F5807F0FD0B0F5007FDC
:104F800010D0B0F5407F0DD001240CE05A482A6DB6
:104F9000016821F4803111430160DBE7386840F497
:104FA00000303860ECB326462868C043C00207D4FE
:104FB0006A6FD8F8001021F000411143C8F80010C2
:104FC0002868C043C00008D4D5F8B820DBF800102A
:104FD00021F480411143CBF800102868C0438002BF
:104FE00007D4EA6ED8F8001021F080711143C8F898
:104FF00000102868C04340000CD4DBF8001021F4F6
:105000000041CBF80010DBF80010D5F8BC201143AC
:10501000CBF800102868C04308D437486A6D01688F
:1050200000E018E021F04051114301602868C043BE
:10503000000208D4D5F88C20DAF8001021F44001E1
:105040001143CAF8001028790024C04300F0010081
:1050500020430AD00FE0D5F88020DAF8001021F4C0
:1050600040711143CAF800109EE70198002101F039
:10507000D9FF00B106462879C04300F00200204362
:1050800005D10198012101F0CDFF00B10646287934
:10509000C04300F00400204305D10198022101F033
:1050A000C1FF00B106462879C04300F00800204344
:1050B00005D10098002102F045F800B10646287994
:1050C000C04300F01000204305D10098012102F0F8
:1050D00039F800B106462879C04300F020000443A7
:1050E00004D10098022102F02DF800B916B1012078
:1050F000BDE8FE8F0020FBE74C4402582DE9F05F2D
:1051000004000F467ED0DFF83882D8F8000000F0A7
:105110000F00B8420CD2D8F8001021F00F0139432B
:10512000C8F80010D8F8000000F00F00B84269D1AC
:105130002078844D40070AD52069296801F0700164
:10514000884204D9296821F0700101432960207840
:105150007C4E361D00070AD56069316801F0700188
:10516000884204D9316821F0700101433160207810
:10517000C0060AD5A069316801F4E061884204D90B
:10518000316821F4E061014331602078DFF8B4B187
:1051900080060BF1080B0CD5E1695846DBF80020BE
:1051A00002F07002914204D9026822F070020A43B0
:1051B0000260207880070AD5E068296801F00F01B5
:1051C000884204D9296821F00F0101432960207821
:1051D000C0073ED05B49A2682868183920F4706087
:1051E000104328606068022818D0032819D0096885
:1051F000012819D0490700294ADADFF848A1AAF1A5
:10520000080A00E044E0DAF8002022F00702024336
:10521000CAF80020FEF7BAFE814612E00968890349
:10522000E9E709688901E6E7C905E4E7FEF7AEFEAC
:10523000A0EB090141F28830814202D90320BDE888
:10524000F09F6168DAF8000000F03800B0EBC10FA1
:10525000ECD1207880070AD5E068296801F00F01B9
:10526000884204D2296821F00F0101432960D8F84F
:105270000010404601F00F01B9420BD9016821F03E
:105280000F0139430160006800F00F00B84201D0FF
:105290000120D4E7207840070AD52069296801F069
:1052A0007001884204D2296821F07001014329600D
:1052B000207800070AD56069316801F070018842E2
:1052C00004D2316821F07001014331602078C006BA
:1052D0000AD5A069316801F4E061884204D23168DE
:1052E00021F4E06101433160207880060CD5E1694A
:1052F0005846DBF8002002F07002914204D20268A6
:1053000022F070020A43026000F09AF80E492A68FF
:105310002B68C2F3032203F00F038A5CC95C02F01E
:105320001F0201F01F01D040084A20FA01F111606C
:105330000749086007480068BDE8F05FFEF762BEF5
:1053400000200052184402580E8B00901C000024CC
:10535000180000241000002470B5144C3F22026095
:10536000124A24680832131D114D04F007044460EA
:1053700016681C1D06F470668660166806F00F0637
:10538000C660126802F0700202611A6802F07002D0
:1053900042611A6802F4E0628261226802F07002DF
:1053A000C261286800F00F00086070BD1044025808
:1053B0000020005230B500F043F80B4A0B490C4B6B
:1053C00015681468C5F3032204F00F048A5C095DB4
:1053D00002F01F0201F01F01D040064A20FA01F13D
:1053E00019601060084630BD184402580E8B0090BA
:1053F0001C0000241800002400B5FFF7DBFF05495E
:105400000968054AC1F30211515C01F01F01C8404F
:1054100000BD00001C4402580E8B009000B5FFF741
:10542000C9FF05490968054AC1F30221515C01F031
:105430001F01C84000BD00001C4402580E8B0090A4
:10544000454970B545480968434B103B11F0380297
:1054500008D00111082A03D0102A0BD0182A0BD02B
:10546000084670BD19688906FBD51968C1F3C101EA
:10547000C84070BD3A4870BD3749374D18310C1DD2
:1054800024350A68096826682D6802F0030406F0CE
:105490000102C1F30511C5F3CC0515FB02F200EEC4
:1054A000102AB8EE400AE9B32F4ADFED2E0AB7EE14
:1054B000001A6CB1DFED2D1A012C01D0022C43D063
:1054C00002EE101A1068F8EE422A81EEA22A1EE0BF
:1054D0001C68A40611D51B6801EE901A1168C3F36D
:1054E000C103F8EE612AD84001EE900AC1F308002A
:1054F000F8EE611A81EEA22A0BE001EE901ADFEDC0
:105500001C2A00BFF8EE611A106882EEA12AC0F3CF
:10551000080001EE900AF8EE611A40EE201A31EE12
:10552000810A00E015E022EE000A1068C0F3462070
:10553000401C00EE900AF8EE600A80EE201ABCEEE5
:10554000C10A10EE100A70BD01EE901ADFED092AB3
:10555000D8E7002070BD0000104402580090D0032E
:1055600040787D0100000039304402580024744A1C
:105570000024744C20BCBE4B2DE9F05F04007DD0AC
:10558000FF4F2078FE4D1837DFF8F493103DC00729
:1055900048D0D9F80000396800F03800102815D03C
:1055A000182803D101F0030002280FD06068B0F57D
:1055B000803F12D010B1B0F5A02F18D0286820F489
:1055C00080302860286820F4802009E02868800363
:1055D00028D560680028D2D024E0286840F48030C4
:1055E0002860606888B1FEF7D1FC064609E02868AB
:1055F00040F480202860F0E7FEF7C8FC801B642898
:105600006FD828688003F7D50CE0FEF7BFFC06468C
:1056100005E000BFFEF7BAFC801B6428F0D82868BC
:105620008003F7D4207841F20308D54E0C3E800762
:1056300069D5D9F80000396810F038000ED0182864
:1056400001D188070AD0E06890B3296821F01901D8
:1056500001432960FEF79AFC824631E02868400742
:1056600002D5E06800288AD0E168286820F0190097
:1056700008432860FEF78AFC824607E0DFE000BFAF
:10568000FEF784FCA0EB0A000228B9D8286840077E
:10569000F6D500BFFEF774FC40451BD820694028B2
:1056A00012D0316821F47C3141EA003030602AE0C8
:1056B00018E000BFFEF76AFCA0EB0A0002289FD8A2
:1056C00028684007F6D5E5E7306820F47C3040F4E0
:1056D0000030EBE7207C316821F0FE4141EA0060B8
:1056E000E4E70DE1286820F001002860FEF74EFC99
:1056F000824605E0FEF74AFCA0EB0A0002288DD89E
:1057000028684007F6D42078C0065DD5D9F8000097
:10571000DFF86CB2396800F03800ABF1040B0828F0
:1057200010D0182803D101F0030001280AD0E06945
:105730000028286838D040F080002860FEF726FC5A
:10574000824623E02868C00523D5E069802876D109
:105750001FE0206A202821D0316821F0F84141EA79
:105760008060306030E000BF94F82010DBF800204B
:1057700022F07C5242EA0161CBF8001024E000BF25
:10578000FEF704FCA0EB0A00022898D82868C005A0
:10579000F6D5FEF7F5FB4045E6D8DAE7306820F0AD
:1057A000F84040F08040DCE720F080002860FEF701
:1057B000EDFB064605E000BFFEF7E8FB801B022874
:1057C0009DD82868C005F7D42078000729D56C48F3
:1057D0006169643000298046016811D041F00101FF
:1057E0000160FEF7D3FB064605E000BFFEF7CEFBE7
:1057F000801B0228C9D8D8F800008007F6D510E031
:1058000021F001010160FEF7C1FB064605E000BF83
:10581000FEF7BCFB801B022872D8D8F80000800776
:10582000F6D42078800623D5A0690028286810D0F7
:1058300040F480502860FEF7A9FB064605E036E1FB
:10584000FEF7A4FB801B02285AD828688004F7D5ED
:105850000EE020F480502860FEF798FB064604E036
:10586000FEF794FB801B02284AD828688004F7D4EE
:10587000207840074FD5DFF80C81D8F8001041F4AC
:105880008071C8F80010FEF781FB064605E000BFF6
:10589000FEF77CFB801B642832D8D8F80000C005D6
:1058A000F6D5374EA068603601280AD008B1052821
:1058B00013D0306820F001003060306820F0040020
:1058C00002E0306840F001003060A06841F2883AA0
:1058D00090B1FEF75BFB80460AE0306840F00400C0
:1058E0003060EEE7FEF752FBA0EB0801514507D808
:1058F00030688007F6D50EE0FEF748FB804607E0EB
:1059000084E000BFFEF742FBA0EB080151457DD8C3
:1059100030688007F6D4606AB0B3DFF86480D9F8E5
:10592000001008F120084FF6F87B08F10409C1F3D4
:10593000C2010329A8F1040A69D00228286820F0CE
:105940008070286003D0FEF721FB044684E0FEF758
:105950001DFB064605E000BFFEF718FB801B022872
:1059600077D828688001F7D4E26A40F2F3313868CA
:1059700054F8283F884340EA02101843386004E096
:105980001044025800480258B5E0217B4346228962
:105990004FF4FE0C208A4FF0FE474902267D521E2E
:1059A000401EA1F50071C2F308088AB2761E0CEA07
:1059B000004042EA08020243504607EA06610A43F1
:1059C0001A60DAF8002022F00102CAF80020D9F8A3
:1059D0000020266A22EA0B0242EAC602C9F8002029
:1059E000DAF80010A26921F00C011143CAF8001086
:1059F0000168E26921F0020111430160016841F48C
:105A000080310160016841F4003101E021E027E0CC
:105A10000160016841F480210160016841F00101E9
:105A20000160286840F080702860FEF7AFFA0446F5
:105A300005E000BFFEF7AAFA001B022809D8286873
:105A40008001F7D557E000BFFEF7A0FA001B02283F
:105A500002D90320BDE8F09F28688001F4D44AE011
:105A600039680128D8F8000021D0A26A01F00303A8
:105A700093421CD1E26AC1F305118A4217D1216B0E
:105A8000C0F30802491E8A4211D1616BC0F346225D
:105A9000491E91420BD1A16BC0F30642491E9142AF
:105AA00005D1E16BC0F30660491E814201D001209F
:105AB000D0E7A16C4E46D9F80000C0F3CC0081427B
:105AC00019D0DAF80000554620F00100CAF80000AD
:105AD000FEF75CFA4FEA0007FEF758FAB842FBD02F
:105AE000A26C306820EA0B0040EAC20030602868EF
:105AF00040F0010028600020ACE7000070B5040011
:105B00000D4603D094F82C0010B107E0012070BDC1
:105B1000002084F82D00204600F018F8022084F8B8
:105B20002C002068211DFCF75FFED4E90002294605
:105B3000FCF7ACFE04480121026842F0004202601A
:105B400084F82C10002070BD00400052FEF774B89D
:105B500010B5044690F82C00022804D094F82C00CC
:105B6000012801D0012010BD022084F82C002068FB
:105B7000FCF76FFE012084F82C00002010BD00000F
:105B800070B5044690F82C000D46022804D0012878
:105B900003D0052801D0012070BD022084F82C001C
:105BA0002068FCF75FFE2868022805D05FF001003E
:105BB00084F82C00002070BD0520F9E7704770477D
:105BC00070470000F0B590F83C20012A3BD01F4EF2
:105BD000012480F83C40022280F83D2002681C4DE0
:105BE0005368B242D2F808C001D0AA4203D14F682C
:105BF00023F470033B430F6823F070031F43576087
:105C00000268B24213D0B2F1804F10D0114B9A42C9
:105C10000DD0114B9A420AD0104B9A4207D0AA429B
:105C200005D00F4B9A4202D00E4B9A4204D189689C
:105C30002CF0800319439160002180F83D4080F8EA
:105C40003C100846F0BD0220F0BD000000000140FD
:105C5000000401400004004000080040000C004027
:105C6000001800400040014010B5040003D094F833
:105C70003D0010B107E0012010BD002084F83C0079
:105C8000204600F022F8022084F83D002068211D03
:105C900001F0DAFF012084F8480084F83E0084F81F
:105CA0003F0084F8400084F8410084F8420084F802
:105CB000430084F8440084F8450084F8460084F8E2
:105CC000470084F83D00002010BD704790F83D105B
:105CD000012901D001207047174A022180F83D10A8
:105CE0000168CB6843F00103CB600068904214D098
:105CF000B0F1804F11D0114988420ED0104988422E
:105D00000BD01049884208D00F49884205D00F496E
:105D1000884202D00E49884207D181680D4A11405D
:105D2000062906D0B1F5803F03D0016841F001019A
:105D300001600020704700000000014000040040A6
:105D400000080040000C0040000401400018004022
:105D500000400140070001002DE9F04104000D461C
:105D600003D094F83D0018B108E00120BDE8F081AF
:105D7000002084F83C00204600F04CF8244A022021
:105D800084F83D0020688168114081602068211DF1
:105D900001F05AFF226840F20336AF6940F60C4C1E
:105DA0002B684FF2F00EA86891680B439169B143DC
:105DB00041EA07210843D5E9031720EA0C00D5E999
:105DC000076C20EA0E00D2F820E03F0140EA0626E8
:105DD00068686D69314347EA0C37936023680F4365
:105DE00001219F612EF0AA0242EA0513226818439E
:105DF000106284F8481084F83E1084F83F1084F84C
:105E0000441084F8451084F83D100020AEE70000EF
:105E1000F8BFFEFF10B586B0044614216846FCF7B3
:105E200059FB2068B0F1804F1FD11148016841F043
:105E300001010160006800F0010005900C4808387D
:105E4000016841F00101016000680123032100F0B5
:105E5000010005900020009102226946CDE9012051
:105E6000CDE903030348FDF763FF06B010BD000052
:105E7000E84402580000025870472DE9F0410446FA
:105E800000680027C6680569A90713D5B10711D5B1
:105E9000FA1E02610121217720688069800720466F
:105EA00002D0FFF7E9FF04E000F0B4F8204600F06C
:105EB00089F92777680716D5700714D5226802205C
:105EC0006FF00401116120772068806910F4407F31
:105ED000204602D0FFF7D0FF04E000F09BF82046F8
:105EE00000F070F92777280715D5300713D52268F9
:105EF00004206FF00801116120772068C0698007D5
:105F0000204602D0FFF7B8FF04E000F083F82046F7
:105F100000F058F92777E80616D5F00614D5226860
:105F200008206FF01001116120772068C06910F41B
:105F3000407F204602D0FFF79FFF04E000F06AF8A0
:105F4000204600F03FF92777E80708D0F00706D091
:105F500021686FF001000861204600F0BDF92806B5
:105F600001D4A80408D5300606D521686FF4025084
:105F700008612046FFF723FEE80508D5300606D560
:105F800021686FF4807008612046FFF717FE6806ED
:105F900008D5700606D521686FF0400008612046DC
:105FA00000F0A4F9A8060AD5B00608D521686FF05C
:105FB000200008612046BDE8F041FFF701BEBDE8C2
:105FC000F081000010B586B0044614216846FCF745
:105FD00081FA0D492068884214D10C48016841F0CB
:105FE000040101600068002100F004000590022017
:105FF000C2010092CDE90101CDE9031004486946D0
:10600000FDF796FE06B010BD00040040E0440258C3
:1060100000080258704770B5044690F83C0000260E
:106020000D4601280BD0012084F83C000C2A4AD0F0
:1060300007DC82B1042A20D0082A06D131E00220F0
:1060400070BD102A53D0142A63D00126002084F892
:106050003C00304670BD206801F06AFE206881690E
:1060600041F0080181612068816921F004018161AA
:1060700020682A698169114311E0206801F0AEFEB1
:106080002068816941F4006181612068816921F49F
:106090008061816120682969826942EA0121816108
:1060A000D4E7206801F0E8FE2068C16941F00801EA
:1060B000C1612068C16921F00401C16120682A69B9
:1060C000C169114311E0206801F024FF2068C16913
:1060D00041F40061C1612068C16921F48061C1613E
:1060E00020682969C26942EA0121C161AEE72068DE
:1060F00001F04CFF2068416D41F0080141652068C6
:10610000416D21F00401416520682A69416D114308
:1061100011E0206801F074FF2068416D41F40061D6
:1061200041652068416D21F48061416520682969DD
:10613000426D42EA0121416588E710B5040003D0B1
:1061400094F83D0010B107E0012010BD002084F854
:106150003C00204600F022F8022084F83D00206830
:10616000211D01F071FD012084F8480084F83E00F3
:1061700084F83F0084F8400084F8410084F842002D
:1061800084F8430084F8440084F8450084F846000D
:1061900084F8470084F83D00002010BD08B5006871
:1061A0000649884208D10648016841F002010160B1
:1061B000006800F00200009008BD000000040040EC
:1061C000E84402587047000030B504464FF0020220
:1061D00069B1042912D0082917D00C291CD0102924
:1061E00021D094F84300012824D0012030BD94F838
:1061F0003E000128F9D184F83E201DE094F83F00CC
:106200000128F2D184F83F2016E094F840000128DC
:10621000EBD184F840200FE094F841000128E4D14C
:1062200084F8412008E094F842000128DDD184F888
:10623000422001E084F843200122206801F06AFD39
:106240001B4B20681B491C4A984209D0884207D042
:10625000904205D0194DA84202D0194DA84203D151
:10626000456C45F4004545642068984212D0B0F171
:10627000804F0FD0134B98420CD0134B984209D04B
:10628000124B984206D0884204D01149884201D06E
:10629000904207D181680F4A1140062906D0B1F516
:1062A000803F03D0016841F001010160002030BD52
:1062B0000000014000040140004001400044014052
:1062C000004801400004004000080040000C00406D
:1062D000001800400700010000680349884201D10E
:1062E000FDF75ABE7047000000100040704730B5FF
:1062F00090F88410012918D0012280F884202421EC
:10630000C0F888100022202401680B680D6823F073
:10631000005325F001050D60426601680B60C0F86E
:10632000884080F88420104630BD022030BD704780
:10633000704770B5044690F8840001281DD00122F2
:1063400084F884202420C4F8880020680568026846
:1063500022F0010202602068826822F060620A4333
:106360008260204601F08CFE22682021002015600A
:10637000C4F8881084F8840070BD022070BD70B528
:10638000044690F8840001281DD0012284F884205E
:106390002420C4F8880020680568026822F0010201
:1063A00002602068826822F060420A4382602046D0
:1063B00001F066FE2268202100201560C4F88810D4
:1063C00084F8840070BD022070BD7047704770472C
:1063D0002DE9F04107680025044640F60F03022628
:1063E000F8693968BA6818420AD183067ED501F087
:1063F000200302F0805C53EA0C0377D0616F7EE1EA
:10640000D44BDFF854C3134001EA0C0C53EA0C0CD4
:106410006CD05FEAC07C0CD05FEAC15C09D54FF05C
:10642000010CC7F820C0D4F8907047F00107C4F8F9
:106430009070870709D5D70707D027683E62D4F840
:10644000906046F00406C4F8906046070AD5D60767
:1064500008D0276804263E62D4F8906046F0020611
:10646000C4F8906006070CD501F020061E4308D042
:10647000266808233362D4F8903043F00803C4F848
:10648000903003050BD54B0109D526684FF4006306
:106490003362D4F8903043F02003C4F89030D4F83D
:1064A0009030002B3DD0800609D501F0200002F08D
:1064B0008051084303D0616F09B1204688472168A5
:1064C000D4F890008968490602D410F0280F2AD029
:1064D000204601F0B5FE2068806840061ED5206881
:1064E000083050E8001F21F0400100E021E040E8C2
:1064F0000012002AF3D1D4F8800078B197490165E1
:10650000D4F88000FCF722FD00280AD0D4F88000DF
:10651000016D00E02046BDE8F04108472046FFF746
:1065200056FFBDE8F0812046FFF751FFC4F89050B8
:10653000F7E7D4F86CC02023BCF1010F7ED15FEAED
:10654000C06C7BD55FEAC16C78D5102038622068BA
:106550008068400673D5D4F880208149106888424D
:1065600034D07F491831884230D07D49303188425B
:106570002CD07B494831884228D079496031884203
:1065800024D077497831884220D0754990318842AB
:106590001CD07349A831884218D07249884215D05E
:1065A00070491831884211D06E49303188420DD07F
:1065B0006C494831884209D06A496031884205D027
:1065C00068497831884201D06649903140684FF47B
:1065D00080770004000C40D0B4F85C1081423CD9B4
:1065E000A4F85E00D069B8422FD0216851E8000FAE
:1065F00020F4807041E80002002AF6D120680830BB
:1066000050E8001F21F0010140E80012002AF5D1F6
:106610002068083050E8001F21F0400140E80012D7
:10662000002AF5D1C4F88C30E566206850E8001FD8
:1066300021F0100140E80012002A01E04AE019E0D0
:10664000F3D1D4F88000FCF7D1FA2667B4F85C00E7
:10665000B4F85E10401A81B208E0B4F85C108142D0
:106660007FF466AFD069B842FAD126672046FFF7BB
:106670005EFE56E7B4F85C00B4F85E10B4F85E2035
:10668000401A81B2002AF4D00029F2D0226852E8E0
:10669000000F20F4907042E80007002FF6D1324F2F
:1066A000206800F1080050E8002F02EA070240E8E5
:1066B000002CBCF1000FF3D1C4F88C30E56665679F
:1066C000226852E8000F20F0100042E80003002B7F
:1066D000F6D1CAE7C60209D5560207D54FF4801095
:1066E00038622046BDE8F041FFF770BE06060AD5C5
:1066F00001F0800602F40002164304D0A16F0029C5
:106700007FF408AF0DE7420611D54A060FD52046A3
:10671000016851E8002F22F0400241E80024002CDB
:10672000F6D1C0F88830856700F0D0F8F9E60202AB
:1067300006D54A0004D52046BDE8F041FFF745BE26
:10674000C00196D5002994DA2046BDE8F041FFF754
:10675000EFBD00000100001020010004378200900E
:106760001000024010040240FEFFFFEF10B50400CD
:1067700003D0D4F8880010B107E0012010BD00203C
:1067800084F88400204600F027F82420C4F888000C
:106790002068016821F001010160A06A10B1204663
:1067A00001F090FC204601F075FD0128E6D020683C
:1067B000416821F4904141602068816821F02A01FC
:1067C00081602068016841F0010101602046BDE858
:1067D000104001F0DBBC000070B5B6B006461421D5
:1067E00030A8FBF777FEC0216846FBF773FE3149FE
:1067F000306888425CD100201E9002210546CDE918
:1068000000106846FDF7A4FF08B1FBF7DCFF2A483B
:10681000016841F080410160006800F080403590DF
:1068200025480838016841F001010160016801F064
:1068300001013591016841F02001016000680224E6
:10684000012100F020003590A00330900B221B485E
:10685000CDE9314130A9CDE93352FDF769FA30AACB
:106860004020072182E83100CDE93351144830A996
:10687000FDF75EFA134C4F211348021584E82300FC
:10688000C4E9035265612046A561E5612562656240
:10689000FCF7DEFF08B1FBF796FFC6F88040002248
:1068A0000521A6635220FDF7A1FD5220FDF790FDC2
:1068B00036B070BD00780040E8440258000002582D
:1068C0000014025894020024100002407047FEE7B2
:1068D0002DE9FC4F82468D88894693468820DAF858
:1068E00000108C2300EBCB149422A646C868C0F39A
:1068F0000B4028440D59040403EBCB1005F47045FC
:10690000CDE9000441F80E509C23D9F8004003EB78
:10691000CB164FF0AC0C982340F2077702EBCB116B
:10692000A02503EBCB1205EBCB13DAF800500CEBF0
:10693000CB1CD5F80C80C8F30B4808F10108A04423
:10694000019C48EA040845F80E80DAF80040B9F8DE
:106950000C50D4F80C802058C8F30A08454400F4C1
:106960007048009844F80080DAF80040D9F8080030
:10697000D4F80C80C8F30A0808F101088044009894
:1069800048EA054844F80080DAF80000445824F04A
:1069900007044450DAF80040D9F81000605099F824
:1069A000310099F81810040299F83200000440EA06
:1069B000016099F8301021430143DAF80000815159
:1069C000DAF80000815821F0FF018150DAF8000068
:1069D000D9F814108150DAF80000C158B943C150F9
:1069E000DAF80010D9E907021043C850DAF80010AD
:1069F000D9F8240041F80C00D9F81000C8B30128D8
:106A00003AD004283AD0022838D0032836D00728B4
:106A100034D00120DAF80030B02505EBCB11B422D8
:106A200084245D5802EBCB1205F0E0255D50D9E9D6
:106A3000003504EBCB14EB1AB9F828504343454317
:106A4000DAF80000DB1D43EA05434350DAF80000A2
:106A500081586FF30A018150DAF80000D9F82C1040
:106A60008150DAF80000015941F001010151BDE8FF
:106A7000FC8FFFE70420CDE70320CBE70220C9E726
:106A8000104802220E4B002110B50360C0E901122C
:106A9000C160C0E91112C164016541658165C165CC
:106AA000FCF740F808B1FBF78EFE06480121FBF722
:106AB00047FF002803D0BDE81040FBF784BE10BD9F
:106AC0000010005224000024094808B5016841F074
:106AD0000101016000680022052100F00100009022
:106AE0000B20FDF783FCBDE808400B20FDF770BCD0
:106AF000D8440258F0B587B01C216846FBF7EAFC81
:106B0000154801270823134D02214FF0400C0022A5
:106B1000C0E90057C0E9027310260661CD01C0F834
:106B200014C0C0E906528F020762CE020724C0E9F2
:106B300009628DE81A0005250394CDE904510691F8
:106B40006946FEF7DBFF08B1FBF73DFE01F088FF69
:106B500007B0F0BD404100528C0000242DE9F04FF9
:106B600087B014216846FBF7B5FC5E48016841F028
:106B700010010160016801F010010591016841F008
:106B800002010160016801F002010591016841F014
:106B900008010160016801F008010591016841F0F8
:106BA00001010160016801F001010591016841F0F6
:106BB00040010160016801F040010591016841F464
:106BC00080710160016801F480710591016841F0F4
:106BD00004010160016801F004010591016841F0C0
:106BE00080010160016801F080010591016841F0B8
:106BF0002001016000680122DFF8ECA043F62B4180
:106C000000F0200005905046FDF7B4F9DFF8DCB045
:106C1000012280215846FDF7ADF94FF4C068344891
:106C200001224146FDF7A6F942F20109314800224E
:106C30004946FDF79FF9304801222021FDF79AF9D6
:106C4000012443F62340002569468DE83100504673
:106C50000395FDF76DF80326694608275046CDE9F0
:106C60000074CDE90246FDF763F880206946CDE95E
:106C70000004CDE902465846FDF75AF81C4869461B
:106C8000CDE90084CDE90246FDF752F80226CDF8A1
:106C90000090039569461748CDE90146FDF748F88D
:106CA0001C206946CDE9000514480294FDF740F820
:106CB000009769460F48CDE90154FDF739F80420E3
:106CC00069468DE861000C48FDF732F820206946DE
:106CD0008DE8310008480395FDF72AF807B0BDE8B4
:106CE000F08F0000E044025800040258000C0258E3
:106CF000001802580008025800000258001C0258F0
:106D0000F0B58DB034216846FBF7E4FB264800243B
:106D1000244B072100F1180E40F283151B2240F28C
:106D2000DB3603600923446040F29717846040F229
:106D3000EF3CC460C0E904418EE8EE1080F83440B6
:106D400080F8354080F83640FDF7CBF908B1FBF705
:106D50003AFD4FF47070FF219622009202270497AB
:106D6000CDE902404FF4B4730193F026CDE9051448
:106D7000CDE90A6007A87A0205234FF0504580E864
:106D80002C008DF8301000228DF8314069460648FD
:106D90008DF83240FDF77CF9002801D0FBF713FD98
:106DA0000DB0F0BD00100050C000002430B58DB013
:106DB00024216846FBF78EFB154803210B1F002496
:106DC000099401220A940B94C0E9024395070461D7
:106DD000C0E9005184610225CDE90014CDE9022407
:106DE0000F236946CDE90624CDE904350894FEF762
:106DF000B3FF08B1FBF7E7FC054809A909940B9418
:106E0000FEF7E0FE002801D0FBF7DDFC0DB030BD41
:106E10006801002430B58BB0002468461C2107941B
:106E200008940994FBF756FB174840F2E73245F601
:106E3000BF53144D8021C0E9024204618161C0E961
:106E40000053FFF77AF908B1FBF7BDFC0E4807A91C
:106E500007940994FEF7B6FE08B1FBF7B4FC602076
:106E60006946CDE900040848082202940494FFF71B
:106E7000D2F808B1FBF7A7FC0348FFF7A3F80BB063
:106E800030BD000000040040B40100241848002177
:106E900010B5164C0C224FF4E1230460C0E9013117
:106EA000C160C0E904128161C16101624162816215
:106EB000FFF75CFC08B1FBF786FC0D480021FFF7EB
:106EC0005EFA08B1FBF77FFC09480021FFF731FAB1
:106ED00008B1FBF778FC0648FFF709FA002803D051
:106EE000BDE81040FBF76FBC10BD0000007800400B
:106EF00000020024FEE7FEE702490020087000F0CF
:106F000039B800002000002410B586B0142168466E
:106F1000FBF7E0FA0D48016841F0040101600068E8
:106F200000220B4C012100F0040005902046FDF7E3
:106F300021F801AB012000900221002283E8070024
:106F400069462046FCF7F4FE06B010BDE044025846
:106F500000080258064B0122002902FA00F21978B3
:106F600002D00A431A7001E09143197000F002B890
:106F7000200000240A4810B50078C043C0B200F0D9
:106F800013F8084C012211462046FCF7F3FFBFF32B
:106F90004F8F00222046BDE810400121FCF7EABFD8
:106FA000200000240008025870B51B4D00F00102BB
:106FB000012104462846FCF7DDFF02212846C4F3E0
:106FC0004002FCF7D7FF4FF480612846C4F38002EB
:106FD000FCF7D0FF4FF400612846C4F3C002FCF771
:106FE000C9FF4FF480512846C4F30012FCF7C2FFDA
:106FF0004FF400512846C4F34012FCF7BBFF202198
:107000002846C4F38012FCF7B5FFE2090348BDE847
:1070100070402021FCF7AEBF000402580000025867
:10702000704700002DE9F047454D044689464FF072
:10703000000A2868C04380070AD0414E283E3068C5
:1070400020F080603060FCF7A1FF0746B04608E002
:107050000120BDE8F08700BFFCF798FFC01B0228A5
:1070600067D8D8F800000001F6D4206829684FF4EA
:10707000FE0721F47C313E0241EA00302860207A8C
:10708000A389B4F804C040022D4D2D495B1E227C1B
:10709000ACF1010C1035091DA0F5007080B2521E34
:1070A000CCF3080C07EA034340EA0C00184306EA55
:1070B0000262104328600868626920F0C000104333
:1070C00008600A68A06922F0200202430A60281DB5
:1070D0000A6822F010020A6002684FF6F873E46949
:1070E0009A4342EAC40202600868B9F1000F40F016
:1070F00010020A6011D00868B9F1010F11D040F4F4
:1071000000100860D8F80000444640F08060C8F8DD
:107110000000FCF73BFF05460DE0086840F4002046
:10712000EFE740F48010ECE7FCF730FF401B02284B
:1071300001D903208DE720680001F5D5504688E786
:10714000284402582DE9F047454D044689464FF042
:10715000000A2868C04380070AD0414E283E3068A4
:1071600020F080503060FCF711FF0746B04608E081
:107170000120BDE8F08700BFFCF708FFC01B022814
:1071800067D8D8F800008000F6D4208829684FF42A
:10719000FE0721F07C713E0241EA00502860207A0F
:1071A000A389B4F804C040022D4D2D495B1E227CFA
:1071B000ACF1010C1835091DA0F5007080B2521E0B
:1071C000CCF3080C07EA034340EA0C00184306EA34
:1071D0000262104328600868626920F4406010432E
:1071E00008600A68A06922F4007202430A60281D40
:1071F0000A6822F480720A6002684FF6F873E46944
:107200009A4342EAC40202600868B9F1000F40F4F0
:1072100080720A6011D00868B9F1010F11D040F0F6
:1072200080700860D8F80000444640F08050C8F8EC
:107230000000FCF7ABFE05460DE0086840F4800056
:10724000EFE740F40000ECE7FCF7A0FE401B02284B
:1072500001D903208DE720688000F5D5504688E7E6
:107260002844025870B501220D4D5402284621468B
:10727000FCF780FE0A20FCF7CDFC002221462846C0
:10728000FCF778FE1420FCF7C5FC012221462846B5
:10729000FCF770FEBDE870407820FCF7BBBC000036
:1072A0000018025810B5FFF7DDFFFF21002000F0A5
:1072B0009FFB7721012000F09BFB0121084600F095
:1072C00097FB0021012000F093FB0021012000F03A
:1072D0008FFB1321012000F08BFBEF21002000F039
:1072E00087FB0821012000F083FBFF21002000F034
:1072F0007FFB7721012000F07BFB0121084600F095
:1073000077FB0021012000F073FB0021012000F039
:107310006FFB1021012000F06BFBC021002000F06A
:1073200067FB7721012000F063FB0021012000F0C2
:107330005FFBC121002000F05BFB1121012000F068
:1073400057FB0C21012000F053FBC221002000F06C
:107350004FFB0721012000F04BFB0221012000F030
:1073600047FBCC21002000F043FB3021012000F03E
:107370003FFBB021002000F03BFB0621012000F084
:1073800037FBCF21012000F033FB1421012000F056
:107390002FFB0C21012000F02BFB0F21012000F01E
:1073A00027FB0321012000F023FB0021012000F036
:1073B0001FFB0A21012000F01BFB0721012000F028
:1073C00017FB1B21012000F013FB0321012000F01B
:1073D0000FFB1221012000F00BFB1021012000F017
:1073E00007FB2521012000F003FB3621012000F0DE
:1073F000FFFA1E21012000F0FBFAB121002000F06D
:10740000F7FA0C21012000F0F3FAD421012000F05A
:10741000EFFA1821012000F0EBFA0C21012000F016
:10742000E7FA0E21012000F0E3FA0621012000F026
:10743000DFFA0321012000F0DBFA0621012000F031
:10744000D7FA0821012000F0D3FA2321012000F00F
:10745000CFFA0621012000F0CBFA1221012000F022
:10746000C7FA1021012000F0C3FA3021012000F0FA
:10747000BFFA2F21012000F0BBFA1F21012000F0EC
:10748000B7FAFF21002000F0B3FA7721012000F0C5
:10749000AFFA0121084600F0ABFA0021012000F00C
:1074A000A7FA0021012000F0A3FA1121012000F029
:1074B0009FFAB021002000F09BFA7321012000F018
:1074C00097FAB121002000F093FA7C21012000F00E
:1074D0008FFAB221002000F08BFA8321012000F006
:1074E00087FAB321002000F083FA8021012000F008
:1074F0007FFAB521002000F07BFA4921012000F03D
:1075000077FAB721002000F073FA8721012000F0FC
:107510006FFAB821002000F06BFA3321012000F04F
:1075200067FAB921002000F063FA1021012000F071
:107530005FFA1F21012000F05BFABB21002000F060
:1075400057FA0321012000F053FAC121002000F076
:107550004FFA0821012000F04BFAC221002000F070
:1075600047FA0821012000F043FAD021002000F062
:107570003FFA8821012000F03BFAE021002000F0D2
:1075800037FA0021012000F033FA0021012000F039
:107590002FFA0221012000F02BFA0021012000F037
:1075A00027FA0021012000F023FA0C21012000F02D
:1075B0001FFAE121002000F01BFA0521012000F054
:1075C00017FA9621012000F013FA0721012000F09C
:1075D0000FFA9621012000F00BFA0621012000F09D
:1075E00007FA9621012000F003FA0821012000F09B
:1075F000FFF99621012000F0FBF90021012000F0A5
:10760000F7F94421012000F0F3F94421012000F0B2
:10761000EFF9E221002000F0EBF90021012000F059
:10762000E7F90021012000F0E3F90321012000F037
:10763000DFF90321012000F0DBF90021012000F037
:10764000D7F90021012000F0D3F90221012000F038
:10765000CFF90021012000F0CBF90021012000F03A
:10766000C7F90021012000F0C3F90221012000F038
:10767000BFF90021012000F0BBF9E321002000F058
:10768000B7F90021012000F0B3F90021012000F03A
:10769000AFF93321012000F0ABF93321012000F0D4
:1076A000A7F9E421002000F0A3F94421012000F013
:1076B0009FF94421012000F09BF9E521002000F012
:1076C00097F90D21012000F093F9D421012000F059
:1076D0008FF92821012000F08BF98C21012000F086
:1076E00087F90F21012000F083F9D621012000F055
:1076F0007FF92821012000F07BF98C21012000F086
:1077000077F90921012000F073F9D021012000F060
:107710006FF92821012000F06BF98C21012000F085
:1077200067F90B21012000F063F9D221012000F05C
:107730005FF92821012000F05BF98C21012000F085
:1077400057F9E621002000F053F90021012000F054
:107750004FF90021012000F04BF93321012000F006
:1077600047F93321012000F043F9E721002000F020
:107770003FF94421012000F03BF94421012000F0B1
:1077800037F9E821002000F033F90E21012000F044
:107790002FF9D521012000F02BF92821012000F03C
:1077A00027F98C21012000F023F91021012000F09D
:1077B0001FF9D721012000F01BF92821012000F03A
:1077C00017F98C21012000F013F90A21012000F0A3
:1077D0000FF9D121012000F00BF92821012000F040
:1077E00007F98C21012000F003F90C21012000F0A1
:1077F000FFF8D321012000F0FBF82821012000F040
:10780000F7F88C21012000F0F3F8EB21002000F0C4
:10781000EFF80021012000F0EBF80121084600F00C
:10782000E7F8E421012000F0E3F8E421012000F072
:10783000DFF84421012000F0DBF80021012000F0F6
:10784000D7F8ED21002000F0D3F8F321012000F05B
:10785000CFF8C121012000F0CBF8BA21012000F0BF
:10786000C7F80F21012000F0C3F86621012000F0C5
:10787000BFF87721012000F0BBF84421012000F07F
:10788000B7F85521012000F0B3F85521012000F090
:10789000AFF84421012000F0ABF87721012000F07F
:1078A000A7F86621012000F0A3F8F021012000F0E4
:1078B0009FF8AB21012000F09BF81C21012000F073
:1078C00097F83F21012000F093F8EF21002000F00D
:1078D0008FF81021012000F08BF80D21012000F01D
:1078E00087F80421012000F083F80821012000F02E
:1078F0007FF83F21012000F07BF81F21012000F0DC
:1079000077F8FF21002000F073F87721012000F0C4
:107910006FF80121084600F06BF80021012000F00B
:1079200067F80021012000F063F81321012000F026
:107930005FF8E821002000F05BF80021012000F052
:1079400057F80E21012000F053F81121002000F01B
:107950004FF87820FCF75EF9E821002000F048F8A5
:107960000021012000F044F80C21012000F040F833
:107970000A20FCF74FF9E821002000F039F84021F7
:10798000012000F035F80021012000F031F8FF213E
:10799000002000F02DF87721012000F029F80121C6
:1079A000084600F025F80021012000F021F8002110
:1079B000012000F01DF80021012000F019F8362107
:1079C000002000F015F80021012000F011F83A2104
:1079D000002000F00DF85521012000F009F82921C0
:1079E000002000F005F8BDE810401420FCF712B9A3
:1079F0002DE9F047DFF894904FF4806800220C46A0
:107A0000064641464846FCF7B5FABFF34F8F204D76
:107A1000002208212846FCF7ADFA1E4F0EB10122C4
:107A200000E0002238468021FCF7A4FABFF34F8F14
:107A3000012228460821FCF79DFABFF34F8F2E46FE
:107A40000025304600220821FCF794FA200601D5D3
:107A5000012200E0002238468021FCF78BFA600604
:107A6000040EBFF34F8F012230460821FCF782FA43
:107A7000BFF34F8F6D1C082DE3DBBFF34F8F4146E3
:107A80004846BDE8F0470122FCF774BA00180258D6
:107A900000040258000C02587047704770B59CB043
:107AA0004C216846FAF716FD202113A8FAF712FDBB
:107AB0000220FCF7CDFC214800242149026842F451
:107AC0004042026002680A6842F001020A600968E6
:107AD00001F001011B9101688904FCD50DF1280C0E
