:020000040800F2
:10000000A807002439030008E73400084333000838
:10001000E534000819060008E94100080000000066
:100020000000000000000000000000000D39000882
:100030001B06000800000000E93400080F39000822
:100040005703000857030008570300085703000828
:100050005703000857030008570300085703000818
:100060005703000857030008570300085703000808
:1000700057030008570300085703000857030008F8
:1000800057030008570300085703000857030008E8
:1000900057030008570300085703000857030008D8
:1000A00057030008570300085703000857030008C8
:1000B00057030008570300085703000857030008B8
:1000C00057030008570300085703000857030008A8
:1000D0005703000857030008570300085703000898
:1000E00057030008570300080000000057030008EA
:1000F0005703000857030008570300085703000878
:100100005703000857030008570300085703000867
:100110005703000857030008B13A000857030008C6
:100120005703000857030008570300085703000847
:100130005703000857030008570300085703000837
:1001400000000000000000000000000000000000AF
:100150005703000857030008570300085703000817
:100160005703000857030008570300085703000807
:1001700057030008570300085703000857030008F7
:100180005703000857030008893B0008570300087D
:1001900057030008570300085703000857030008D7
:1001A00057030008570300085703000857030008C7
:1001B00057030008570300085703000857030008B7
:1001C00057030008570300085703000857030008A7
:1001D0005703000857030008570300085703000897
:1001E0005703000857030008570300085703000887
:1001F0005703000857030008570300085703000877
:100200005703000857030008570300085703000866
:100210005703000857030008570300085703000856
:1002200057030008570300085703000800000000A8
:100230005703000857030008000000005703000898
:100240005703000857030008570300085703000826
:100250005703000857030008570300085703000816
:100260005703000857030008570300085703000806
:100270005703000857030008570300080000000058
:100280005703000857030008570300080000000048
:10029000000000005703000800F002F800F03CF8EE
:1002A0000AA090E8000C82448344AAF10107DA45D1
:1002B00001D100F031F8AFF2090EBAE80F0013F0E7
:1002C000010F18BFFB1A43F0010318472442000036
:1002D00044420000103A24BF78C878C1FAD85207C7
:1002E00024BF30C830C144BF04680C6070470000B0
:1002F0000023002400250026103A28BF78C1FBD82F
:10030000520728BF30C148BF0B6070471FB504F0CB
:10031000CDF81FBD10B510BD00F010F91146FFF764
:10032000F5FF03F0A9FF00F042F903B4FFF7F2FF75
:1003300003BC03F06BFF00000A4880470A4880476F
:100340000A480047FEE7FEE7FEE7FEE7FEE7FEE7B6
:10035000FEE7FEE7FEE7FEE705480649064A074BCB
:100360007047000021060008B9390008990200080A
:10037000A8010024A8070024A8030024A80300243F
:10038000704753EA020C00F069802DE9F04B4FF002
:100390000006002B1FBFB3FA83F503FA05F424FA15
:1003A00005F65E4012BF1643B2FA82F502FA05F472
:1003B000C5F120051EBF22FA05FC44EA0C042035D5
:1003C00056EA044C4FEA144418BF641C4FF000086E
:1003D0004FF00009904271EB030C39D3002919BF8B
:1003E000B1FA81F701FA07F6B0FA80F700FA07F6DA
:1003F000C7F120071EBF20FA07FC46EA0C0620378B
:10040000B6FBF4FCA7EB0507103F07F01F0BCBF181
:1004100020060CFA0BFB2CFA06F644BFB346002666
:10042000202FA4BF5E464FF0000B5BEA060C08BF0E
:100430004FF0010B19EB0B09ABFB027C48EB0608F4
:10044000C01B06FB02CC0BFB03CC71EB0C01C1E71C
:100450000B46024641464846BDE8F08B13B54FF0C7
:1004600000004FF00001AFF30080BDE81C40704772
:100470000FB4044910B503AA029800F031F810BC7B
:100480005DF814FB000000244FF0000200B5134695
:1004900094469646203922BFA0E80C50A0E80C50A4
:1004A000B1F12001BFF4F7AF090728BFA0E80C5055
:1004B00048BF0CC05DF804EB890028BF40F8042B4E
:1004C00008BF704748BF20F8022B11F0804F18BFBB
:1004D00000F8012B70477047704770477047000065
:1004E000074B70B50D467B4400F011F804462846D2
:1004F00000F020F810B14FF0FF3070BD204670BD05
:10050000273D000001694A1C02610878704700B568
:100510008FB0CDE901310021059105497944CDE93C
:1005200003101146684600F02EF80FB000BD000021
:10053000E5FFFFFF007B00F080007047754600F08C
:100540003FF8AE4605006946534620F00700854651
:1005500018B020B5FFF700FFBDE820404FF00006BF
:100560004FF000074FF000084FF0000B21F007019B
:10057000AC46ACE8C009ACE8C009ACE8C009ACE8DE
:10058000C0098D4670472DE9F04106460024D6E9A2
:100590000170F5688046304603E04146B847641C68
:1005A0003046A8470028F8D12046BDE8F08110B5B4
:1005B0000446AFF300802046BDE81040FFF7B5BE0B
:1005C000004870474401002470B590B03821684657
:1005D000FFF75AFF00200F904FF4807108904FF4FE
:1005E00040640E904A010B900C9006260392EB2378
:1005F000CDE906140596A5030D900EAA0548694697
:100600000995009300F09CFD08B100F007F810B0C8
:10061000002070BD18000024FEE7704772B6FEE7A8
:10062000054805490839026842F00202026008687C
:100630008004FCD5704700000C4802582DE9F84FA3
:10064000044600F0DFFB00903CB194F8350002282E
:1006500006D0802161650020E4E00120BDE8F88F2C
:10066000C74DC74EC649183520683036DFF81483A9
:10067000DFF814938842DFF814A3DFF814B328D00E
:10068000A84226D0B04224D0404522D0484520D0B0
:1006900050451ED058451CD0BD4A1832904218D043
:1006A000BC4A904215D0BB4A1832904211D0B94A88
:1006B000303290420DD0B74A4832904209D0B54A04
:1006C0006032904205D0B34A7832904201D0B14AAC
:1006D0009032026822F001020260206888422ED027
:1006E000A8422CD0B0422AD0404528D0484526D038
:1006F000504524D0584522D0A54A183290421ED0E9
:10070000A44A90421BD0A34A1832904217D0A14A63
:100710003032904213D09F4A483290420FD09D4AC7
:10072000603290420BD09B4A7832904207D0994A6F
:100730009032904203D0974AA832904209D1026881
:1007400022F01E0202602068426922F080024261AB
:1007500003E0026822F00E020260276888493846EA
:100760008F424DD0A8424BD0B04249D0404547D0EF
:10077000484545D0504543D0584541D0844918316B
:1007800088423DD0834988423AD082491831884214
:1007900036D080493031884232D07E494831884253
:1007A0002ED07C49603188422AD07A4978318842FB
:1007B00026D078499031884222D07649A8318842A3
:1007C0001ED0754988421BD073491431884217D016
:1007D00071492831884213D06F493C3188420FD08B
:1007E0006D49503188420BD06B496431884207D043
:1007F00069497831884203D067498C318F4214D1DE
:10080000206E016821F4807101600EE000F0FAFAB8
:100810000099401A052808D920226265032100208A
:1008200084F8351084F8340017E73868C007EDD134
:10083000534A0121206890422ED0A8422CD0B042C9
:100840002AD0404528D0484526D0504524D0584588
:1008500022D04F4B183398421ED04E4B98421BD09B
:100860004C4B1833984217D04A4B3033984213D030
:10087000484B483398420FD0464B603398420BD0D8
:10088000444B7833984207D0424B9033984203D080
:10089000404BA833984208D194F85C703F23A06D78
:1008A00007F01F07BB40836007E094F85C30A06D41
:1008B00003F01F0301FA03F34360206890424DD018
:1008C000A8424BD0B04249D0404547D0484545D0DA
:1008D000504543D0584541D02D4A183290423DD022
:1008E0002C4A90423AD02B4A1832904236D0294AAC
:1008F0003032904232D0274A483290422ED0254A98
:10090000603290422AD0234A7832904226D0214A3F
:100910009032904222D01F4AA83290421ED01E4AE6
:1009200090421BD01C4A1432904217D01A4A2832E7
:10093000904213D0184A3C3290420FD0164A50329F
:1009400090420BD0144A6432904207D0124A783257
:10095000904203D0104A8C3290420BD1D4E9190254
:100960004260E06E30B1026822F480720260D4E925
:100970001C024260002084F8351084F834006DE6D3
:1009800010000240580002407000024088000240FF
:10099000A000024010040240085402582DE9F05F04
:1009A00028B190F83510022904D08021416501203A
:1009B000BDE8F09F764A764BDFF8D4C11832016863
:1009C0003033744CDFF8D0B16145744D744E754FBF
:1009D000DFF8D4E1DFF8D4A1DFF8D49131D091422F
:1009E0002FD099422DD0A1422BD0594529D0A942D0
:1009F00027D0B14225D0B94223D0DFF8AC81A8F18D
:100A0000780841451DD0DFF8A081A8F16008414574
:100A100017D0DFF89481A8F14808414511D0DFF8DC
:100A20008881A8F1300841450BD0DFF87C81A8F11E
:100A30001808414505D0714503D0514501D04945BD
:100A40002AD14FF0040880F8358061451FD09142CB
:100A50001DD099421BD0A14219D0594517D0A942A7
:100A600015D0B14213D0B94211D04F4878388142E5
:100A70000DD04D486038814209D04B4848388142FA
:100A800005D049483038814201D0474818380868B5
:100A900020F00100086078E0D1F8008028F001081B
:100AA000C1F800800168D1F8008028F00E08C1F874
:100AB00000800168614546D0914244D0994242D0BD
:100AC000A14240D059453ED0A9423CD0B1423AD093
:100AD000B94238D0344A783A914234D0324A603AF6
:100AE000914230D0304A483A91422CD02E4A303A86
:100AF000914228D02C4A183A914224D0714522D0F4
:100B0000514520D049451ED02A4A91421BD0294A3E
:100B10001432914217D0274A2832914213D0254AE5
:100B20003C3291420FD0234A503291420BD0214A9D
:100B30006432914207D01F4A7832914203D01D4A55
:100B40008C32914218D1026E0121136823F4807314
:100B5000136090F85C30826D03F01F039940516080
:100B6000D0E919124A60C16E31B10A6822F480726C
:100B70000A60D0E91C124A600122016D002380F84E
:100B8000352080F8343001B18847002010E700009C
:100B900010000240580002407000024088000240ED
:100BA000A0000240B800024088040240A0040240B5
:100BB000B8040240085402582DE9F84F03247F4D31
:100BC00000234FF001094FF0B04B4FF00F0AEDE05A
:100BD00009FA03F632407AD00F7907F00307012FA4
:100BE00001D0022F19D187684FEA430ED1F80CC00B
:100BF00004FA0EF827EA08070CFA0EFC4CEA070C78
:100C0000C0F808C0D0F804C00F792CEA060CC7F36E
:100C100000179F4047EA0C0747600E79F643B60776
:100C200002D18E68012E0BD0C6684FEA43088F6848
:100C300004FA08FC26EA0C0607FA08F73743C760EF
:100C40000E7906F00306022E12D1DE080F694FEA74
:100C5000437C00EB8606B646366A4FEADC6C0AFA3D
:100C60000CF807FA0CF726EA08063743CEF820708E
:100C70000F7906684FEA430807F0030704FA08FCF7
:100C800007FA08F726EA0C06374307604E6816F4A1
:100C9000403F1CD04A4E376847F00207376036683D
:100CA0009F0706F00206009623F0030606F1B04601
:100CB000B6463F0FD6F80864DFF808810AFA07FC49
:100CC000404526EA0C0603D14FF0000C41E06CE0F1
:100CD000DFF8F4C0604502D14FF0010C39E0DFF8D5
:100CE000ECC0604502D14FF0020C32E0DFF8E0C00A
:100CF000604502D14FF0030C2BE0DFF8D8C060450F
:100D000002D14FF0040C24E0DFF8CCC0604502D1E2
:100D10004FF0050C1DE0DFF8C4C0604502D14FF074
:100D2000060C16E0DFF8B8C0604502D14FF0070CA2
:100D30000FE0DFF8B0C0604502D14FF0080C08E0CA
:100D4000DFF8A4C0604502D14FF0090C01E04FF07C
:100D50000A0C0CFA07FC4CEA060CCEF808C44F68E3
:100D6000DBF80060FF0226EA020600D516435F4664
:100D7000CBF80060D1F804C0DBF804605FEA8C2C8B
:100D800026EA020600D516437E606E684F6826EAA2
:100D90000206BF0300D516436E602E684F6826EA30
:100DA0000206FF0300D516432E605B1C0A6832FA68
:100DB00003F67FF40DAFBDE8F88F00008000005807
:100DC000F444025800000258000402580008025877
:100DD000000C025800100258001402580018025863
:100DE000001C025800200258002402580AB18161F8
:100DF00070470904FBE7000001480068000C7047D9
:100E00000010005C01488068704700000C0000245E
:100E10000248816802781144816070470C00002408
:100E2000032010B500F0FAF801F01EFB0F4A10493C
:100E300014681368C4F3032203F00F038A5CC95CCF
:100E400002F01F0201F01F01D0400A4A20FA01F10E
:100E50001160094908600F2000F010F808B1012066
:100E600010BD00F09FF8002010BD0000184402588B
:100E7000B6440008080000240400002410B510281F
:100E800004468AB02CD200220146362000F0A6F893
:100E9000362000F095F8174804601748016841F0C3
:100EA00010010160006809A900F010000890684670
:100EB00001F066FA0598B0B101F0B2FA40000F49AE
:100EC00000220F4CB0FBF1F10E4840F2E733046012
:100ED000C0E90332491EC0E9011201F030FE28B119
:100EE00001200AB010BD01F09BFAE8E7054801F0C7
:100EF00059FEF6E710000024E844025840420F0073
:100F000000100040F8000024154BF0B5083B427873
:100F100013491A600B680A1F23F001030B60436832
:100F20001360057BC67A827A437B2D07847B45EA72
:100F30000665C77B90F809C0067A90F800E045EA9C
:100F4000C24040EA834040EA444040EA074040EA69
:100F50000C2040EA460040EA0E000860F0BD0000A8
:100F6000A0ED00E0BFF35F8F044800210368034A4F
:100F700023F48033036070321160704724ED00E089
:100F8000074A40F00100064970321060086840F4DA
:100F900080300860BFF34F8FBFF36F8F7047000042
:100FA00024ED00E0054808B5016841F00201016048
:100FB000006800F00200009008BD0000F4440258F0
:100FC000002809DB410900F01F028900012001F11E
:100FD000E0219040C1F80001704700000E4BF0B4D2
:100FE0001B680D46C3F30223C3F10706042E00D984
:100FF0000426191D072901D2002300E0DB1E01246D
:1010000004FA06F19C40491E2940641E9940144090
:101010002143F0BC03F0E9B80CED00E0064900F014
:10102000070210B54FF6FF040868044B204040EA61
:1010300002201843086010BD0CED00E00000FA0526
:10104000134970B50A68D243520705D5096801F003
:101050000701814213D118E00A6822F00702024317
:101060000A60FFF7CFFE0A4D4FF47A760446083D3A
:1010700007E000BFFFF7C6FE001BB04201D9012008
:1010800070BD2868C0438004F4D4002070BD000007
:101090000C480258F8B50446FFF7B4FE05461CB1EB
:1010A00094F8410010B107E00120F8BD204600F09F
:1010B0008DF841F28830A06420686FF0FF02A168CB
:1010C000036802EB012223F4F85111430160A06C84
:1010D000002220212B460090204602F0D2FA002860
:1010E000E3D12268D4E907352679E168176845EA33
:1010F0000665DFF844C01943104B2943002501263B
:1011000007EA0C07394311602268D4E90517B4F8DF
:1011100010C0D2F804E039430EEA030E4EEA0C4345
:101120001943516021680A6842F001020A6065644F
:1011300084F84160F8BD00002FFFFF00FEF8E0FFDB
:101140002DE9F843164688460446FFF75BFE034642
:1011500094F8400001280ED0012084F840000027B8
:1011600094F84100012808D05FF0020584F840702F
:101170002846BDE8F8830220FBE7A06C8221676463
:1011800084F84110002220210090204602F079FAD4
:101190000500EBD120687268016821F00801114355
:1011A0000160706808280AD1226810213068106335
:1011B0002068C1602068016841F4801101604FF02F
:1011C00040624146204602F090F9CFE72DE9F04712
:1011D000B6B00446142130A8FFF756F9C02168467E
:1011E000FFF752F93849206888426AD100201390ED
:1011F0004FF000710446CDE90010684600F0C4F9D4
:1012000008B1FFF70BFA3148016841F480410160F1
:10121000006800F4804035902C480C30016841F0A3
:1012200002010160016801F002013591016841F09D
:1012300020010160016801F020013591016841F051
:1012400008010160006802250326DFF884A000F091
:1012500008004FF00A084021CDE93015CDE934806F
:10126000CDE9324630A95046FFF7A6FC8020DFF8D2
:10127000649032AACDE930050927484682E8D000BB
:1012800030A9FFF799FC3102484632AACDE9301562
:1012900030A982E85001FFF78FFC042032AACDE983
:1012A000300530A9504682E8D000FFF785FC2803BE
:1012B00032AACDE93005084830A982E8D000FFF70E
:1012C0007BFC36B0BDE8F08700500052D444025891
:1012D0000004025800140258000C025810B501F026
:1012E0007DF805490968054AC1F30211515C01F016
:1012F0001F01C84010BD000020440258B644000839
:10130000494930B5484C0B1D0A68143409681D68FA
:10131000246802F00303C5F30012C1F30531C4F3DE
:10132000CC04002914FB02F200EE102AF8EE400A69
:1013300075D03F4A9FED3D1AB7EE000A6BB1DFED65
:101340003D1A012B01D0022B64D002EE101A116855
:10135000F8EE422A81EEA22A21E0334C283C236891
:101360009B0612D5344B246801EE901A1168C4F321
:10137000C104F8EE612AE34001EE903AC1F308019E
:10138000F8EE611A81EEA22A0BE001EE901ADFED71
:101390002B2A00BFF8EE611A116882EEA12AC1F370
:1013A000080101EE901A1168F8EE611A40EE811AF8
:1013B00071EE800A62EE200AC1F3462101EE101A96
:1013C000B8EE411A31EE001AC0EE811ABCEEE11AF5
:1013D00080ED001A1168C1F3064101EE101AB8EE53
:1013E000411A31EE001AC0EE811ABCEEE11A80ED0E
:1013F000011A1168C1F3066101EE101AB8EE411A24
:1014000031EE000A80EE801ABCEEC10A80ED020ABD
:1014100030BD04E001EE901ADFED092ABAE70021A1
:10142000016041608160F3E7284402580000003900
:10143000384402580024744A0090D0030024744CAD
:1014400020BCBE4B494930B5484C0B1D0A681C34C2
:1014500009681D68246802F00303C5F30022C1F384
:101460000551C4F3CC04002914FB02F200EE102A4B
:10147000F8EE400A75D03F4A9FED3D1AB7EE000ADC
:101480006BB1DFED3D1A012B01D0022B64D002EECF
:10149000101A1168F8EE422A81EEA22A21E0334C9C
:1014A000283C23689B0612D5344B246801EE901A21
:1014B0001168C4F3C104F8EE612AE34001EE903AEA
:1014C000C1F30801F8EE611A81EEA22A0BE001EEE9
:1014D000901ADFED2B2A00BFF8EE611A116882EE38
:1014E000A12AC1F3080101EE901A1168F8EE611A01
:1014F00040EE811A71EE800A62EE200AC1F34621A5
:1015000001EE101AB8EE411A31EE001AC0EE811A3F
:10151000BCEEE11A80ED001A1168C1F3064101EE3C
:10152000101AB8EE411A31EE001AC0EE811ABCEE64
:10153000E11A80ED011A1168C1F3066101EE101A7B
:10154000B8EE411A31EE000A80EE801ABCEEC10AF4
:1015500080ED020A30BD04E001EE901ADFED092AA9
:10156000BAE70021016041608160F3E72844025836
:1015700000000039404402580024744A0090D0030F
:101580000024744C20BCBE4B2DE9FE4F0546DFF80D
:10159000E48350F8081B0024F64FC943019005F17D
:1015A0002800264608F12408009008011DD4A86EE2
:1015B00050B1B0F5801F0CD0B0F5001F0ED0B0F5C3
:1015C000401F1ED001240FE0386840F4003038601E
:1015D00017E00198022102F079F803E00098022157
:1015E00002F004F904000CD026462888C043C00548
:1015F00023D4A86D05281ED2DFE800F00C11161BBD
:101600001B00AA6ED8F8001021F440111143C8F84D
:101610000010EAE7386840F40030386009E00198CB
:10162000002102F053F803E00098002102F0DEF8F8
:10163000044674B100E0012426462888C043800592
:1016400028D4E86D80281ED00CDC90B140280ED143
:1016500014E0AA6DD8F8001021F007011143C8F872
:101660000010EAE7C02813D0B0F5807F10D0012425
:101670000FE0386840F40030386009E0019800213C
:1016800002F024F803E00098002102F0AFF80446CD
:101690009CB126462888DFF8DC92C04309F12C096A
:1016A00040052CD4D5F8A800B0F5800F20D00DDC73
:1016B000A0B1B0F5001F0FD115E0EA6DD8F8001009
:1016C00021F4E0711143C8F80010E3E7B0F5C00F52
:1016D00013D0B0F5000F10D001240FE0386840F4AB
:1016E0000030386009E00198002101F0EFFF03E0CD
:1016F0000098002102F07AF804467CB1264628883A
:10170000C04300052DD4D5F8AC00B0F1007F21D046
:101710000EDCA8B1B0F1807F10D116E0D5F8A8207A
:10172000D9F8001021F460011143C9F80010E6E770
:10173000B0F1407F13D0B0F1806F10D001240FE0E2
:10174000386840F40030386009E00198002101F069
:10175000BDFF03E00098002102F048F8044674B190
:1017600026462868C04380011FD4E86CD8B11028F1
:101770000FD0202812D0302815D0012414E0D5F83D
:10178000AC20D9F8001021F0E0611143C9F8001035
:10179000E7E7386840F40030386004E0019802213F
:1017A00001F094FF044674B126462888C043C00463
:1017B0002BD4286EB0F5005F20D00DDCA0B1B0F5C1
:1017C000805F0FD115E06B48EA6C2030016821F092
:1017D000300111430160E8E7B0F5405F13D0B0F588
:1017E000804F10D001240FE0386840F4003038609A
:1017F00009E00198002101F069FF03E00098002151
:1018000001F0F4FF04468CB126462888C0438004CA
:1018100029D4686EB0F5403F23D010DC08B3B0F592
:10182000803F14D0B0F5003F0FD115E02A6ED8F8F4
:10183000001021F4E0411143C8F80010E5E7B0F5CD
:10184000802F0ED0B0F5A02F0BD001240AE0019814
:10185000012101F03BFF03E00098012101F0C6FFE8
:10186000044694B126462888C04340042AD4D5F8BB
:10187000B000B0F1405F23D010DC08B3B0F1805F5E
:1018800014D0B0F1005F0FD115E06A6ED8F80010E7
:1018900021F4E0211143C8F80010E4E7B0F1804FD3
:1018A0000ED0B0F1A04F0BD001240AE00198012125
:1018B00001F00CFF03E00098012101F097FF0446BE
:1018C00074B126462888C04300041FD4286FD8B1BD
:1018D000B0F1805F0ED0B0F1005F10D0012414E0B1
:1018E000D5F8B020D9F8001021F0E0411143C9F833
:1018F0000010E7E7386840F40030386004E00198F1
:10190000012101F0E3FE044674B126462868C04375
:10191000C0011ED4A86CD0B101280ED0022811D06D
:10192000032814D0012413E02A6FD8F8001021F006
:1019300040511143C8F80010E8E7386840F400301F
:10194000386004E00198022101F0C0FE0446ACB109
:1019500026462868DFF81CB0C043ABF11C0B4002E0
:1019600052D40548016841F480710160FFF74AFADA
:10197000824611E02C44025800480258FA48AA6CEA
:10198000016821F0030111430160E2E7FFF73AFA31
:10199000A0EB0A00642835D8F4480068C005F5D5E6
:1019A0008CBBDFF8C4A3B5F8B4100AF1240ADAF846
:1019B000000001F4407100F44070884211D0DAF860
:1019C0000010DAF8002021F4407142F48032CAF8A5
:1019D0000020DAF8002022F48032CAF80020CAF889
:1019E0000010D5F8B400B0F5807F1AD1FFF70AFADD
:1019F000029012E0FFF706FA0299411A41F288308C
:101A000081420AD9032426462878DFF85CA3C04324
:101A10000AF1080AC00721D03CE0DAF8000080078C
:101A2000E8D5D5F8B410C1F30120032858460DD0ED
:101A3000016821F47C510160B5F8B420DAF8001097
:101A4000C2F30B021143CAF80010DDE7C84A03686D
:101A500002EA111223F47C511143ECE7E86F1828D5
:101A600016D005DCA0B1082808D0102804D10AE05F
:101A700020280DD028280BD001240AE0019801214C
:101A800001F024FE03E00098012101F0AFFE0446BE
:101A900064B126462878C04380071ED4A86F062864
:101AA00019D2DFE800F0160C11161616EA6FDAF8F4
:101AB000001021F038011143CAF80010EAE701983C
:101AC000012101F003FE03E00098012101F08EFEE8
:101AD00004467CB100E0012426462878C043400734
:101AE0001FD4D5F89400062819D2DFE800F0160CB0
:101AF00011161616AA6FDAF8001021F0070111432B
:101B0000CAF80010E9E70198012101F0DFFD03E0C8
:101B10000098012101F06AFE0446A4B100E001240E
:101B200026462878C04380062BD4D5F89000B0F123
:101B3000405F24D011DC10B3B0F1805F15D0B0F15C
:101B4000005F10D116E0D5F89420D9F8001021F0EC
:101B500007011143C9F80010E3E7B0F1804F0ED040
:101B6000B0F1A04F0BD001240AE00198002101F050
:101B7000ADFD03E00098022101F038FE044694B167
:101B800026462878C04340062BD4D5F89C00B0F5F3
:101B9000406F24D011DC10B3B0F5806F15D0B0F5D4
:101BA000006F10D116E0D5F89020DAF8001021F07F
:101BB000E0411143CAF80010E3E7B0F5805F0ED0B2
:101BC000B0F5A05F0BD001240AE00198002101F0DC
:101BD0007DFD03E00098022101F008FE044694B167
:101BE00026462878C04300062BD4D5F8A000B0F5CF
:101BF000C04F24D011DC10B3B0F5005F15D0B0F5A4
:101C0000804F10D116E0D5F89C20D9F8001021F4AF
:101C1000E0511143C9F80010E3E7B0F5004F0ED0D2
:101C2000B0F5204F0BD001240AE00198002101F00B
:101C30004DFD03E00098022101F0D8FD044654B1A7
:101C400026462878C04300071ED4D5F88400B0F596
:101C5000805F0AD00FE0D5F8A020D9F8001021F459
:101C600060411143C9F80010EBE70098022101F030
:101C7000BDFD00B10126D5F88420DAF8001021F46A
:101C800040511143CAF800102878C043C00613D44D
:101C9000D5F89800B0F5807F05D10098022101F0B9
:101CA000A5FD00B10126D5F89820D9F8001021F43F
:101CB00040711143C9F800102868C043000316D4CE
:101CC000D5F8A40038B1B0F5803F09D0B0F5003F99
:101CD0000BD001240AE00198002101F0F7FC03E099
:101CE0000098022101F082FD04468CB12646286846
:101CF000C043400322D4D5F88800B0F5801F11D02E
:101D0000B0F5001F13D0B0F5401F15D0012414E02A
:101D1000D5F8A420D9F8001021F440311143C9F8B6
:101D20000010E4E7386840F40030386004E00098C0
:101D3000012101F05BFD04465CB126462868C043E2
:101D4000C00323D4286DA8B1B0F5803F17D001247B
:101D50001BE0D5F88820DAF8001021F44011114377
:101D6000CAF80010EAE700004C4402580048025844
:101D7000CFFFFF00386840F40030386004E001987D
:101D8000022101F0A3FC0446E4B126462868C043C2
:101D9000800005D40098022101F028FD00B1012641
:101DA0002868C04380031BD4D5F88000B0B1B0F5DB
:101DB000807F0FD0B0F5007F10D0B0F5407F0DD000
:101DC00001240CE05A482A6D016821F48031114346
:101DD0000160DBE7386840F400303860ECB3264639
:101DE0002868C043C00207D46A6FD8F8001021F0F9
:101DF00000411143C8F800102868C043C00008D44F
:101E0000D5F8B820DBF8001021F480411143CBF85D
:101E100000102868C043800207D4EA6ED8F800108A
:101E200021F080711143C8F800102868C0434000B9
:101E30000CD4DBF8001021F40041CBF80010DBF8E3
:101E40000010D5F8BC201143CBF800102868C0431F
:101E500008D437486A6D016800E018E021F040516D
:101E6000114301602868C043000208D4D5F88C20D3
:101E7000DAF8001021F440011143CAF80010287963
:101E80000024C04300F0010020430AD00FE0D5F841
:101E90008020DAF8001021F440711143CAF80010D4
:101EA0009EE70198002101F011FC00B10646287957
:101EB000C04300F00200204305D10198012101F048
:101EC00005FC00B106462879C04300F00400204319
:101ED00005D10198022101F0F9FB00B106462879ED
:101EE000C04300F00800204305D10098002101F014
:101EF0007DFC00B106462879C04300F01000204365
:101F000005D10098012101F071FC00B10646287945
:101F1000C04300F02000044304D10098022101F0E6
:101F200065FC00B916B10120BDE8FE8F0020FBE77B
:101F30004C4402582DE9F05F04000F467ED0DFF8D4
:101F40003882D8F8000000F00F00B8420CD2D8F860
:101F5000001021F00F013943C8F80010D8F8000034
:101F600000F00F00B84269D12078844D40070AD5AF
:101F70002069296801F07001884204D9296821F09C
:101F800070010143296020787C4E361D00070AD578
:101F90006069316801F07001884204D9316821F02C
:101FA0007001014331602078C0060AD5A06931680C
:101FB00001F4E061884204D9316821F4E061014311
:101FC00031602078DFF8B4B180060BF1080B0CD536
:101FD000E1695846DBF8002002F07002914204D912
:101FE000026822F070020A430260207880070AD556
:101FF000E068296801F00F01884204D9296821F0BE
:102000000F01014329602078C0073ED05B49A268D8
:102010002868183920F4706010432860606802282E
:1020200018D0032819D00968012819D049070029B8
:102030004ADADFF848A1AAF1080A00E044E0DAF839
:10204000002022F007020243CAF80020FEF7DAFE61
:10205000814612E009688903E9E709688901E6E732
:10206000C905E4E7FEF7CEFEA0EB090141F2883096
:10207000814202D90320BDE8F09F6168DAF80000D0
:1020800000F03800B0EBC10FECD1207880070AD502
:10209000E068296801F00F01884204D2296821F024
:1020A0000F0101432960D8F80010404601F00F01EC
:1020B000B9420BD9016821F00F0139430160006872
:1020C00000F00F00B84201D00120D4E7207840078B
:1020D0000AD52069296801F07001884204D2296874
:1020E00021F0700101432960207800070AD560695A
:1020F000316801F07001884204D2316821F070012A
:10210000014331602078C0060AD5A069316801F426
:10211000E061884204D2316821F4E061014331601A
:10212000207880060CD5E1695846DBF8002002F0E3
:102130007002914204D2026822F070020A430260E7
:1021400000F092F90E492A682B68C2F3032203F0CB
:102150000F038A5CC95C02F01F0201F01F01D0402E
:10216000084A20FA01F11160074908600748006831
:10217000BDE8F05FFEF782BE00200052184402580E
:10218000B6440008080000240400002410000024C5
:102190002DE9F047704C206800F00F00072809D2A5
:1021A000206820F00F00C01D2060206800F00F00A4
:1021B00007287CD1FEF726FEDFF8A0810546D8F877
:1021C000000040F00100C8F8000004E0FEF71AFE2D
:1021D000401B022875D8D8F800004007F6D55F48A4
:1021E00000275E4E001D103603685D4943F08043B2
:1021F000036037605B4801605B4801605B480068D2
:10220000FEF73CFE002852D1FEF7FCFD054641F2E8
:10221000883904E0FEF7F6FD411B494551D8306886
:1022200010F0380FF6D1FEF7EDFD51490546D8F80C
:1022300000000840C8F8000005E000BFFEF7E2FD1E
:10224000401B64283DD8D8F800008003F6D4FEF780
:10225000D9FD0546D8F8000020F08070C8F80000CD
:1022600005E000BFFEF7CEFD401B022829D8D8F8B4
:1022700000008001F6D4FEF7C5FD0546D8F8000041
:1022800020F08060C8F8000005E000BFFEF7BAFD4E
:10229000401B022815D8D8F800000001F6D4FEF73C
:1022A000B1FD0546D8F8000020F0805001E04EE076
:1022B00007E0C8F8000007E0FEF7A4FD401B022875
:1022C00002D90320BDE8F087D8F800008000F3D4DD
:1022D000224D384627491835274B2E1D321D2F60B9
:1022E0001E4F264D283730603E1D1060321D3B606A
:1022F000131D35601D1D11602A1D161D1860331D2C
:102300002960106031601860D8F800304FF0FF3558
:102310001249124A23F48023104ED0316032C8F89B
:102320000030683610603560086840F4803008601E
:10233000206800F00F0007280BD9206820F00F005C
:10234000C01D2060206800F00F00072801D0012088
:10235000B8E70020B6E70000002000520044025811
:102360000090D00304000024080000241000002482
:1023700045EDF6FF80020101000202020000FF01AC
:1023800070B5144C3F220260124A24680832131DB3
:10239000114D04F00704446016681C1D06F47066B5
:1023A0008660166806F00F06C660126802F07002BA
:1023B00002611A6802F0700242611A6802F4E06277
:1023C0008261226802F07002C261286800F00F008A
:1023D000086070BD104402580020005230B500F073
:1023E00043F80B4A0B490C4B15681468C5F30322DC
:1023F00004F00F048A5C095D02F01F0201F01F0166
:10240000D040064A20FA01F119601060084630BD3C
:1024100018440258B64400080800002404000024B0
:1024200000B5FFF7DBFF05490968054AC1F3021152
:10243000515C01F01F01C84000BD00001C4402585F
:10244000B644000800B5FFF7C9FF05490968054A09
:10245000C1F30221515C01F01F01C84000BD000022
:102460001C440258B6440008454970B545480968FF
:10247000434B103B11F0380208D00111082A03D059
:10248000102A0BD0182A0BD0084670BD196889068F
:10249000FBD51968C1F3C101C84070BD3A4870BD91
:1024A0003749374D18310C1D24350A6809682668EC
:1024B0002D6802F0030406F00102C1F30511C5F313
:1024C000CC0515FB02F200EE102AB8EE400AE9B383
:1024D0002F4ADFED2E0AB7EE001A6CB1DFED2D1A90
:1024E000012C01D0022C43D002EE101A1068F8EE35
:1024F000422A81EEA22A1EE01C68A40611D51B68A0
:1025000001EE901A1168C3F3C103F8EE612AD840B6
:1025100001EE900AC1F30800F8EE611A81EEA22ADA
:102520000BE001EE901ADFED1C2A00BFF8EE611AF5
:10253000106882EEA12AC0F3080001EE900AF8EEBE
:10254000611A40EE201A31EE810A00E015E022EE19
:10255000000A1068C0F34620401C00EE900AF8EE16
:10256000600A80EE201ABCEEC10A10EE100A70BD9F
:1025700001EE901ADFED092AD8E7002070BD0000B7
:10258000104402580090D00340787D0100000039CB
:10259000304402580024744A0024744C20BCBE4BC2
:1025A0002DE9F05F04007DD0FF4F2078FE4D1837F5
:1025B000DFF8F493103DC00748D0D9F8000039681F
:1025C00000F03800102815D0182803D101F00300BE
:1025D00002280FD06068B0F5803F12D010B1B0F57E
:1025E000A02F18D0286820F480302860286820F4B4
:1025F000802009E02868800328D560680028D2D0B0
:1026000024E0286840F480302860606888B1FEF7D4
:10261000F9FB064609E0286840F480202860F0E7CE
:10262000FEF7F0FB801B64286FD828688003F7D57D
:102630000CE0FEF7E7FB064605E000BFFEF7E2FB15
:10264000801B6428F0D828688003F7D4207841F2F2
:102650000308D54E0C3E800769D5D9F800003968CB
:1026600010F038000ED0182801D188070AD0E06891
:1026700090B3296821F0190101432960FEF7C2FBDC
:10268000824631E02868400702D5E06800288AD0F9
:10269000E168286820F0190008432860FEF7B2FBC3
:1026A000824607E0DFE000BFFEF7ACFBA0EB0A00CC
:1026B0000228B9D828684007F6D500BFFEF79CFB72
:1026C00040451BD82069402812D0316821F47C3164
:1026D00041EA003030602AE018E000BFFEF792FBCC
:1026E000A0EB0A0002289FD828684007F6D5E5E746
:1026F000306820F47C3040F40030EBE7207C316817
:1027000021F0FE4141EA0060E4E70DE1286820F095
:1027100001002860FEF776FB824605E0FEF772FBBB
:10272000A0EB0A0002288DD828684007F6D420784C
:10273000C0065DD5D9F80000DFF86CB2396800F04A
:102740003800ABF1040B082810D0182803D101F091
:10275000030001280AD0E0690028286838D040F03A
:1027600080002860FEF74EFB824623E02868C00503
:1027700023D5E069802876D11FE0206A202821D067
:10278000316821F0F84141EA8060306030E000BFFC
:1027900094F82010DBF8002022F07C5242EA01611C
:1027A000CBF8001024E000BFFEF72CFBA0EB0A00E2
:1027B000022898D82868C005F6D5FEF71DFB4045CD
:1027C000E6D8DAE7306820F0F84040F08040DCE7F7
:1027D00020F080002860FEF715FB064605E000BFEC
:1027E000FEF710FB801B02289DD82868C005F7D48F
:1027F0002078000729D56C4861696430002980463B
:10280000016811D041F001010160FEF7FBFA0646B4
:1028100005E000BFFEF7F6FA801B0228C9D8D8F8F9
:1028200000008007F6D510E021F001010160FEF7FD
:10283000E9FA064605E000BFFEF7E4FA801B02282D
:1028400072D8D8F800008007F6D42078800623D507
:10285000A0690028286810D040F480502860FEF756
:10286000D1FA064605E036E1FEF7CCFA801B0228D5
:102870005AD828688004F7D50EE020F480502860EC
:10288000FEF7C0FA064604E0FEF7BCFA801B0228F9
:102890004AD828688004F7D4207840074FD5DFF85D
:1028A0000C81D8F8001041F48071C8F80010FEF7D0
:1028B000A9FA064605E000BFFEF7A4FA801B6428CB
:1028C00032D8D8F80000C005F6D5374EA06860367B
:1028D00001280AD008B1052813D0306820F0010083
:1028E0003060306820F0040002E0306840F0010001
:1028F0003060A06841F2883A90B1FEF783FA8046D2
:102900000AE0306840F004003060EEE7FEF77AFA43
:10291000A0EB0801514507D830688007F6D50EE0D6
:10292000FEF770FA804607E084E000BFFEF76AFA1F
:10293000A0EB080151457DD830688007F6D4606A65
:10294000B0B3DFF86480D9F8001008F120084FF622
:10295000F87B08F10409C1F3C2010329A8F1040AB4
:1029600069D00228286820F08070286003D0FEF724
:1029700049FA044684E0FEF745FA064605E000BF42
:10298000FEF740FA801B022877D828688001F7D428
:10299000E26A40F2F331386854F8283F884340EA4D
:1029A00002101843386004E01044025800480258EE
:1029B000B5E0217B434622894FF4FE0C208A4FF07C
:1029C000FE474902267D521E401EA1F50071C2F34A
:1029D00008088AB2761E0CEA004042EA0802024366
:1029E000504607EA06610A431A60DAF8002022F02E
:1029F0000102CAF80020D9F80020266A22EA0B0258
:102A000042EAC602C9F80020DAF80010A26921F0F3
:102A10000C011143CAF800100168E26921F00201BB
:102A200011430160016841F480310160016841F4A3
:102A3000003101E021E027E00160016841F48021DC
:102A40000160016841F001010160286840F0807078
:102A50002860FEF7D7F9044605E000BFFEF7D2F97B
:102A6000001B022809D828688001F7D557E000BF6D
:102A7000FEF7C8F9001B022802D90320BDE8F09F29
:102A800028688001F4D44AE039680128D8F80000A9
:102A900021D0A26A01F0030393421CD1E26AC1F380
:102AA00005118A4217D1216BC0F30802491E8A42E0
:102AB00011D1616BC0F34622491E91420BD1A16B2B
:102AC000C0F30642491E914205D1E16BC0F3066096
:102AD000491E814201D00120D0E7A16C4E46D9F8B1
:102AE0000000C0F3CC00814219D0DAF8000055464E
:102AF00020F00100CAF80000FEF784F94FEA000751
:102B0000FEF780F9B842FBD0A26C306820EA0B00D7
:102B100040EAC2003060286840F0010028600020D0
:102B2000ACE7000003480068C16821F00101C16002
:102B300070470000F800002470477047704710B5D8
:102B4000040003D094F83D0010B107E0012010BD4F
:102B5000002084F83C00204600F022F8022084F88F
:102B60003D002068211D00F0A9FF012084F84800E5
:102B700084F83E0084F83F0084F8400084F8410067
:102B800084F8420084F8430084F8440084F8450047
:102B900084F8460084F8470084F83D00002010BD0A
:102BA0007047000090F83D10012901D001207047C6
:102BB000174A022180F83D100168CB6843F00103F9
:102BC000CB600068904214D0B0F1804F11D0114911
:102BD00088420ED0104988420BD01049884208D054
:102BE0000F49884205D00F49884202D00E498842D9
:102BF00007D181680D4A1140062906D0B1F5803F02
:102C000003D0016841F0010101600020704700001D
:102C1000000001400004004000080040000C00409B
:102C2000000401400018004000400140070001007E
:102C300070472DE9F041044600680027C668056921
:102C4000A90713D5B10711D5FA1E02610121217719
:102C5000206880698007204602D0FFF7E9FF04E082
:102C600000F08BF8204600F089F82777680716D522
:102C7000700714D5226802206FF0040111612077DB
:102C80002068806910F4407F204602D0FFF7D0FF13
:102C900004E000F072F8204600F070F8277728076B
:102CA00015D5300713D5226804206FF00801116193
:102CB00020772068C0698007204602D0FFF7B8FF60
:102CC00004E000F05AF8204600F058F82777E806AC
:102CD00016D5F00614D5226808206FF01001116196
:102CE00020772068C06910F4407F204602D0FFF7AB
:102CF0009FFF04E000F041F8204600F03FF82777FE
:102D0000E80708D0F00706D021686FF001000861DD
:102D1000204600F035F8280601D4A80408D530066E
:102D200006D521686FF4025008612046FFF705FFC1
:102D3000E80508D5300606D521686FF48070086173
:102D40002046FFF7F9FE680608D5700606D521680B
:102D50006FF040000861204600F01CF8A8060AD574
:102D6000B00608D521686FF0200008612046BDE854
:102D7000F041FFF7E3BEBDE8F08170477047000007
:102D800000680349884201D1FEF742B8704700004D
:102D900000100040704730B590F88410012918D019
:102DA000012280F884202421C0F8881000222024E9
:102DB00001680B680D6823F0005325F001050D60D4
:102DC000426601680B60C0F8884080F88420104695
:102DD00030BD022030BD7047704770B5044690F892
:102DE000840001281DD0012284F884202420C4F806
:102DF000880020680568026822F0010202602068ED
:102E0000826822F060620A438260204600F0C2FEBF
:102E10002268202100201560C4F8881084F88400FE
:102E200070BD022070BD70B5044690F88400012882
:102E30001DD0012284F884202420C4F88800206852
:102E40000568026822F0010202602068826822F0B0
:102E500060420A438260204600F09CFE22682021E6
:102E600000201560C4F8881084F8840070BD02202A
:102E700070BD7047704770472DE9F0410768002525
:102E8000044640F60F030226F8693968BA6818420A
:102E90000AD183067ED501F0200302F0805C53EA5C
:102EA0000C0377D0616F7EE1D44BDFF854C313403D
:102EB00001EA0C0C53EA0C0C6CD05FEAC07C0CD01D
:102EC0005FEAC15C09D54FF0010CC7F820C0D4F807
:102ED000907047F00107C4F89070870709D5D707AD
:102EE00007D027683E62D4F8906046F00406C4F824
:102EF000906046070AD5D60708D0276804263E62A8
:102F0000D4F8906046F00206C4F8906006070CD52D
:102F100001F020061E4308D0266808233362D4F847
:102F2000903043F00803C4F8903003050BD54B01F3
:102F300009D526684FF400633362D4F8903043F02B
:102F40002003C4F89030D4F89030002B3DD0800698
:102F500009D501F0200002F08051084303D0616FD1
:102F600009B1204688472168D4F89000896849064D
:102F700002D410F0280F2AD0204600F0EBFE206883
:102F8000806840061ED52068083050E8001F21F0F8
:102F9000400100E021E040E80012002AF3D1D4F81B
:102FA000800078B197490165D4F88000FDF7F6FC00
:102FB00000280AD0D4F88000016D00E02046BDE86A
:102FC000F04108472046FFF756FFBDE8F081204654
:102FD000FFF751FFC4F89050F7E7D4F86CC02023F6
:102FE000BCF1010F7ED15FEAC06C7BD55FEAC16C9A
:102FF00078D51020386220688068400673D5D4F8F0
:10300000802081491068884234D07F491831884235
:1030100030D07D49303188422CD07B4948318842BC
:1030200028D079496031884224D077497831884264
:1030300020D07549903188421CD07349A83188420C
:1030400018D07249884215D070491831884211D081
:103050006E49303188420DD06C494831884209D0E0
:103060006A496031884205D068497831884201D088
:103070006649903140684FF480770004000C40D0DE
:10308000B4F85C1081423CD9A4F85E00D069B84223
:103090002FD0216851E8000F20F4807041E8000231
:1030A000002AF6D12068083050E8001F21F0010105
:1030B00040E80012002AF5D12068083050E8001FCF
:1030C00021F0400140E80012002AF5D1C4F88C300C
:1030D000E566206850E8001F21F0100140E800126A
:1030E000002A01E04AE019E0F3D1D4F88000FDF7AE
:1030F000A5FA2667B4F85C00B4F85E10401A81B2F5
:1031000008E0B4F85C1081427FF466AFD069B84241
:10311000FAD126672046FFF75EFE56E7B4F85C005A
:10312000B4F85E10B4F85E20401A81B2002AF4D0E0
:103130000029F2D0226852E8000F20F4907042E893
:103140000007002FF6D1324F206800F1080050E848
:10315000002F02EA070240E8002CBCF1000FF3D177
:10316000C4F88C30E5666567226852E8000F20F0ED
:10317000100042E80003002BF6D1CAE7C60209D5C9
:10318000560207D54FF4801038622046BDE8F04162
:10319000FFF770BE06060AD501F0800602F40002B1
:1031A000164304D0A16F00297FF408AF0DE7420653
:1031B00011D54A060FD52046016851E8002F22F0AC
:1031C000400241E80024002CF6D1C0F88830856721
:1031D00000F0B6F8F9E6020206D54A0004D520460A
:1031E000BDE8F041FFF745BEC00196D5002994DA4D
:1031F0002046BDE8F041FFF7EFBD000001000010E0
:10320000200100044B3D0008100002401004024061
:10321000FEFFFFEF10B5040003D0D4F8880010B112
:1032200007E0012010BD002084F88400204600F053
:1032300027F82420C4F888002068016821F00101E3
:103240000160A06A10B1204600F0C6FC204600F0E4
:10325000ABFD0128E6D02068416821F4904141602F
:103260002068816821F02A0181602068016841F0AE
:10327000010101602046BDE8104000F011BD0000D2
:1032800030B5B7B00446142130A8FDF7FDF8C021D1
:103290006846FDF7F9F826492068884246D10020A3
:1032A0001E9002210446CDE900106846FEF76CF935
:1032B00008B1FDF7B3F91F48016841F08041016092
:1032C000006800F0804035901A480838016841F0E5
:1032D00001010160016801F001013591016841F0CF
:1032E00020010160006802250B2100F020003590CC
:1032F000A8033090CDE93154CDE933410E4830A9CF
:10330000FDF75AFC40200121CDE93214CDE930050A
:103310000A48072230A93492FDF74EFC00225220C1
:103320001146FDF75BFE5220FDF74AFE37B030BD77
:1033300000780040E8440258000002580014025887
:103340007047FEE708B5154800240090012080F37F
:103350001088FEF71DFFFFF7E5FB4FF0E02200208D
:10336000411E106150619061A00000F1E020641CDA
:10337000082CC0F88011C0F88012F5D3002080F32B
:103380001088009800994068096881F30888002136
:1033900081F31488BFF36F8F8047FEE70020009011
:1033A00030B587B014216846FDF76EF822480168F1
:1033B00041F001010160016801F00101059101681E
:1033C00041F002010160016801F00201059101680C
:1033D00041F004010160016801F0040105910168F8
:1033E00041F080010160016801F0800105910168F0
:1033F00041F020010160016801F0200105910168A0
:1034000041F00801016000684FF400540B4D0022A8
:1034100000F00800214605902846FDF7E7FC002152
:1034200000940120CDE90101284603916946FDF78A
:10343000C3FB07B030BD0000E0440258000802584A
:103440002DE9F0410C48002101230A4A20241E02E4
:10345000C0E90561C16110251727016280E8BC0041
:10346000FDF718FE002803D0BDE8F041FDF7D6B8FF
:10347000BDE8F081005000521800002418480021D7
:1034800010B5164C0C224FF4E1230460C0E9013161
:10349000C160C0E904128161C1610162416281625F
:1034A000FFF7B8FE08B1FDF7B9F80D480021FFF7A6
:1034B000BAFC08B1FDF7B2F809480021FFF78DFC0E
:1034C00008B1FDF7ABF80648FFF765FC002803D00C
:1034D000BDE81040FDF7A2B810BD00000078004024
:1034E00064000024FEE7FEE770472DE9F0434B6AD5
:1034F0004FF040662BB1B24203D004688B6A5B1E6A
:10350000236100248D690B6A002D68D0ABB303687A
:103510008D68DD61CD69EDB1D1E90B38D1F824C0FA
:103520004C6B8F8A43EA080344EA0C0423430C6A79
:1035300043EA8743D1E9037C43EA0C0323438C69C4
:103540003B430F682B4323432DE0006849688161AA
:10355000BDE8F083D1E90B3C4F6A4D6B8E8A43EA9C
:103560000C033D430F692B430D6A43EA86438E6982
:103570003B4309682B4333432AE0FFE7CB69B3F1B0
:10358000000917D0D1E90B384F6A4C6BB1F814C061
:1035900043EA08033C430F682343CC6843EA8C4367
:1035A00023434C4635E004683B431343B242636116
:1035B000CBD1CDE7D1E90B384F6A4E6BB1F814C0CF
:1035C00043EA08033E430968334343EA8C4332E04D
:1035D00005680B4313436B6100688461B8E763B30C
:1035E00003688D68DD61CD69B5B1D1E90B38D1F8DB
:1035F00024C04F6B8C8A43EA080347EA0C073B431D
:103600000F6A43EA8443D1E9034C43EA0C033B438A
:103610008F6923432B43C6E7D1E90B3C4F6A4D6BBF
:103620008E8A43EA0C033D430F692B430D6A896977
:1036300043EA86433B432B43CAE7CD6985B1D1E9D1
:103640000B384F6A4C6BB1F814C043EA08033C4393
:103650002343CC6843EA8C43234304682B43A4E709
:103660004B6A002BA5D0D1E90B5C4F6B898A0668A9
:103670001F4345EA0C053D4345EA81411143716111
:10368000AAE72DE9F041984616460F460446069DE6
:1036900008E0681C06D0FDF7B5FBA0EB0800A842C7
:1036A0000AD84DB120688068384000D00120B0426F
:1036B000EFD10020BDE8F081042084F84100606C67
:1036C00040F0010060640120F4E700002DE9F047BC
:1036D000454D044689464FF0000A2868C0438007DC
:1036E0000AD0414E283E306820F080603060FDF7FF
:1036F00089FB0746B04608E00120BDE8F08700BF1F
:10370000FDF780FBC01B022867D8D8F80000000135
:10371000F6D4206829684FF4FE0721F47C313E027C
:1037200041EA00302860207AA389B4F804C040023E
:103730002D4D2D495B1E227CACF1010C1035091D6D
:10374000A0F5007080B2521ECCF3080C07EA0343C8
:1037500040EA0C00184306EA026210432860086839
:10376000626920F0C000104308600A68A06922F076
:10377000200202430A60281D0A6822F010020A6033
:1037800002684FF6F873E4699A4342EAC4020260A1
:103790000868B9F1000F40F010020A6011D0086803
:1037A000B9F1010F11D040F400100860D8F8000002
:1037B000444640F08060C8F80000FDF723FB054652
:1037C0000DE0086840F40020EFE740F48010ECE7DB
:1037D000FDF718FB401B022801D903208DE7206864
:1037E0000001F5D5504688E7284402582DE9F047F6
:1037F000454D044689464FF0000A2868C0438007BB
:103800000AD0414E283E306820F080503060FDF7ED
:10381000F9FA0746B04608E00120BDE8F08700BF8E
:10382000FDF7F0FAC01B022867D8D8F80000800026
:10383000F6D4208829684FF4FE0721F07C713E02FF
:1038400041EA00502860207AA389B4F804C04002FD
:103850002D4D2D495B1E227CACF1010C1835091D44
:10386000A0F5007080B2521ECCF3080C07EA0343A7
:1038700040EA0C00184306EA026210432860086818
:10388000626920F44060104308600A68A06922F46D
:10389000007202430A60281D0A6822F480720A60DE
:1038A00002684FF6F873E4699A4342EAC402026080
:1038B0000868B9F1000F40F480720A6011D00868FE
:1038C000B9F1010F11D040F080700860D8F8000005
:1038D000444640F08050C8F80000FDF793FA0546D2
:1038E0000DE0086840F48000EFE740F40000ECE7EA
:1038F000FDF788FA401B022801D903208DE72068D4
:103900008000F5D5504688E7284402587047704734
:1039100070B59CB04C216846FCF7B6FD202113A879
:10392000FCF7B2FD0220FDF78BFB21480024214962
:10393000026842F44042026002680A6842F00102F2
:103940000A60096801F001011B9101688904FCD536
:103950000DF1280C022009900521C0228CE80700F7
:10396000C6030F9008250D9001230E90CDE9105449
:10397000CDE9003668461294FEF712FE08B172B621
:10398000FEE740201A903F210301CDE916500322A3
:10399000CDE9180313AB13A883E816000421FEF742
:1039A000C9FA002801D072B6FEE71CB070BD000055
:1039B000184802582C0400583348F0B5334A0168BF
:1039C00041F470010160106800F00F00072804D274
:1039D000106820F00F00C01D10602D4900202C4CF5
:1039E00010340B682B4D43F001030B6020600B6813
:1039F0002B400B60136803F00F03072B04D91368E7
:103A000023F00F03DB1D1360214C234A1834234B92
:103A1000261D371D20601E4C214D28343060261D88
:103A20003860371D23603B1D35601C1D3A60251D25
:103A30002E1D1860331D22602860326018600A68ED
:103A4000134B184C22F4802260330A6018602068FF
:103A50006FF30F00B0F1005F03D213490120C1F8EA
:103A600008010B48D4300168C9040BD4026843F242
:103A7000D2010E4B42F4805202601960016821F4B9
:103A800080510160F0BD000088ED00E00020005290
:103A9000004402587FEDF6EA8002010100020202B2
:103AA0000000FF010010005C008000510040005247
:103AB0000148FFF7BEB80000F80000242DE9F047E8
:103AC000294B4FF0804A294D02689842284E294FD1
:103AD000294C09D0504507D0A84205D0B04203D0A8
:103AE000B84201D0A04205D1D1F804C022F0700242
:103AF0004CEA0202DFF884C0DFF884809842DFF8E5
:103B000084900FD050450DD0A8420BD0B04209D0C0
:103B1000B84207D0A04205D0604503D0404501D04F
:103B2000484503D1CD6822F440722A438E684D691E
:103B300022F08002C6620E682A439842866207D04D
:103B4000A04205D0604503D0404501D0484501D191
:103B5000096901630368012143F0040303604161C3
:103B60000260BDE8F0870000000001400004004052
:103B700000080040000C00400004014000400140EB
:103B800000440140004801400148FFF775B90000BA
:103B90006400002430B5416EB9B101680D4B03F1EA
:103BA00008048A688968C2F34262490F5D5C615CFF
:103BB0002D01B5FBF1F1A0F86A10995CA25C090136
:103BC000B1FBF2F1A0F8681030BD0121A0F86A1035
:103BD000F8E70000DE44000890F82810090706D531
:103BE0000168836B4A6822F400421A434A6090F8E5
:103BF0002810C90706D00168C36A4A6822F4003257
:103C00001A434A6090F82810890706D50168036BAB
:103C10004A6822F480321A434A6090F82810490713
:103C200006D50168436B4A6822F480221A434A6031
:103C300090F82810C90606D50168C36B8A6822F47B
:103C400080521A438A6090F82810890606D50168C8
:103C5000036C8A6822F400521A438A6090F8281094
:103C6000490611D50168436C4A6822F480121A4350
:103C70004A60416CB1F5801F06D10168836C4A68C7
:103C800022F4C0021A434A6090F82810090606D5AB
:103C90000168C26C486820F40020104348607047F7
:103CA0002DE9F84300250446C0F89050FDF7AAF826
:103CB0008046206820266FF07E470068000713D5F5
:103CC0000022434631042046009700F043FA58B1E1
:103CD000216851E8000F20F0800041E80002002A2E
:103CE000F6D1C4F8886021E020680068400722D53A
:103CF000002243464FF480012046009700F02AFA44
:103D0000C8B1206850E8001F21F4907140E800120B
:103D1000002AF6D12068083050E8001F21F0010188
:103D200040E80012002AF5D1C4F88C60032084F822
:103D30008450BDE8F883C4F88860C4F88C60E566F8
:103D40002567002084F88450F3E710B5806BFFF7F7
:103D500092F810BD10B5026852E8001F21F490716E
:103D600042E80013002BF6D10E4B0268083252E8ED
:103D7000001F194042E80014002CF6D1C16E012941
:103D800008D1026852E8001F21F0100142E8001338
:103D9000002BF6D100212022C0F88C20C16641679B
:103DA00010BD0000FEFFFFEF2DE9F04304468068E0
:103DB000D84E87B0D84B2168D4E90427D4F81CC06A
:103DC00010430A68002547EA0C0738433240024393
:103DD0000A602068E268416821F440511143416063
:103DE0002268A1699A4201D0206A01439768DFF8EE
:103DF0002CC3CB4ECB4807EA0C070F4397602168D2
:103E0000676ACA6A22F00F023A43CA622268B24263
:103E10000ED1006800F03800182873D047DCB8B322
:103E2000082879D010286FD178E028287ED17BE04F
:103E3000BD498A4209D1006800F00700062875D202
:103E4000DFE800F0546A6C6E7072B8498A4209D19A
:103E5000006800F00700062868D2DFE800F0475D40
:103E60005F616365B2498A4209D1006800F00700CA
:103E700006285BD2DFE800F03A5052545658AD495C
:103E80008A420BD1006800F0070006284ED200E0FD
:103E900010E0DFE800F02B4143454749A6498A423C
:103EA0000AD1006800F03800182839D0B7DD202882
:103EB000BBD13CE001203AE0A0498A4209D1006828
:103EC00000F00700062831D2DFE800F01026282A8B
:103ED0002C2E9B498A420BD1006800F0070006286F
:103EE00024D2DFE800F003191B1D1F2100201EE073
:103EF0009A421BD18B48001D006800F0070006287D
:103F000014D202E00CE007E010E0DFE800F0030567
:103F100007090B0D02200AE0042008E0082006E053
:103F2000102004E0202002E0402000E080208549AD
:103F3000DFF814829A42854A4FF400434FEA211772
:103F40004FF000064ED110281AD006DC022809D006
:103F500004280BD008287CD10DE020283ED0402832
:103F600077D13DE0FDF7BAF9014610E06846FDF76C
:103F7000C7F901990BE003A8FDF764FA049906E07C
:103F80001068800605D51068C0F3C100C140002943
:103F900070D0606A676838F8102007EB4703B1FB00
:103FA000F2F0834255D8B0EB073F52D800230846C1
:103FB0001946FCF7E6F902467808130E120243EAA6
:103FC000012110183A4671410023FCF7DAF9604AE2
:103FD000A0F5407191423CD821688FE03946D8E77E
:103FE0001946D6E7D4F81CC04FF6EF799C4546D168
:103FF000082819D005DC58B101280CD0042875D147
:104000000DE0102815D0202835D040286ED134E09E
:10401000FEF706FA01E0FEF715FA014610E06846E1
:10402000FDF76EF901990BE003A8FDF70BFA04996F
:1040300006E01068800604D51068C0F3C100C140D6
:10404000C1B1636A606838F81330B1FBF3F149001D
:1040500000E04BE001EB5001B1FBF0F0A0F11001EA
:10406000494543D84FF6F0732168C0F34202184027
:10407000104343E043E03946E3E71946E1E7082807
:1040800019D005DC58B101280CD004282ED10DE040
:10409000102815D020282BD0402827D12AE0FEF761
:1040A000BFF901E0FEF7CEF9014610E06846FDF7E2
:1040B00027F901990BE003A8FDF7C4F9049906E07C
:1040C0001068800604D51068C0F3C100C140B1B1CA
:1040D000636A606838F81330B1FBF3F101EB50010B
:1040E000B1FBF0F0A0F11001494505D9012506E02A
:1040F0003946EDE71946EBE7216880B2C860012038
:10410000A4F86A00A4F8680028466667A66707B0A6
:10411000BDE8F083F369FFCF000C0058FFF4FF11F6
:104120000010014054440258004400400048004040
:10413000004C004000500040001401400078004056
:10414000007C00400090D003C644000800440258A0
:10415000FFFC0F002DE9F047994617460D4604462F
:10416000089E4FF0000833E0701C31D0FCF74AFE87
:10417000A0EB0900B04218D8BEB120680168490719
:1041800026D5802D24D0402D22D0C169C9430907EE
:104190000DD4082505622046FFF7DCFDC4F89050D9
:1041A000012084F88480BDE8F0870320FBE7C06924
:1041B000C04300050CD421684FF40060086220461B
:1041C000FFF7C8FD2021C4F8901084F88480ECE744
:1041D0002068C06935EA000004D00020B842C3D08E
:1041E0000020E0E70120F9E7FEE7090700284FEA91
:1041F000116104DB00F1E02080F80014704700F04A
:104200000F0000F1E02080F8141D70477047000097
:1042100004490A685206FCD5024AC1B20C32116048
:10422000704700001C78004030B587B01421684604
:10423000FCF72AF90E48016841F0040101600068AA
:1042400001AB02210B4D00F004000590012000227B
:104250004FF40054009483E8070069462846FCF7B1
:10426000ABFC012221462846FCF7C0FD07B030BD5B
:10427000E04402580008025800F096F8FCF772FE7D
:104280000420FCF77DFE2D4B00201968890311D412
:10429000BFF34F8FBFF36F8F29490860BFF34F8F74
:1042A000BFF36F8F196841F400311960BFF34F8F6E
:1042B000BFF36F8F1968C90323D420497031086098
:1042C000BFF34F8F081F43F6FF7400681C4D103575
:1042D000C0F34E31C0F3C90204EA4116104600BFD4
:1042E00046EA80772F60401EFAD2491EF4D2BFF30F
:1042F0004F8F186840F480301860BFF34F8FBFF3C2
:104300006F8FFCF78DFDFFF703FBFFF749F8FFF711
:1043100097F8FFF7B3F8FFF787FF0AA0FCF7A8F8B4
:10432000FCF752F920B10DA0FCF7A2F872B6FEE737
:1043300012A0FCF79DF8FFF705F8000014ED00E06F
:1043400050EF00E0426F6F746C6F616465722053D0
:104350007461727465642E2E2E0D0A0051535049FB
:10436000204D656D6F7279204D61707065642046D7
:1043700061696C6564210D0A0000000051535049C9
:10438000204D617070656420537563636573732E8F
:10439000204A756D70696E6720746F204150502EF1
:1043A0002E2E0D0A000000007FB5012400252246B4
:1043B0000326009610212B46CDE9015448060394AC
:1043C00000F04AF812210096CDE90154002303942D
:1043D0000222480600F040F803220096CDE901547D
:1043E000002303941221100700F036F800960023F2
:1043F000CDE90154042203940F214FF0605000F0E6
:104400002BF8002302950522039519217007CDE9A9
:10441000006500F021F800960023CDE90154062242
:10442000039419214FF0504000F016F81B2102951B
:10443000012303950722C807CDE9006500F00CF8B9
:1044400000960023CDE901540822039416214FF071
:10445000104000F001F87FBD2DE9FF410AAC4FF09C
:10446000010E94E8E0100024029403948DF80810E3
:104470008DF80C3000948DF809408DF80D608DF8A2
:1044800000E08DF80A408DF80E708DF80120019043
:104490008DF80B508DF80FC0FCF764FD6846FCF7F3
:1044A00033FD0420FCF76CFDBDE8FF814FF0407048
:1044B000E1EE100A7047000000000102030401024F
:1044C00003040607080901000200040006000800B2
:1044D0000A000C00100020004000800000010101D3
:1044E00001030701000008040204080101010000A3
:1044F000104500080000002418000000D402000845
:10450000284500081800002490070000F002000869
:10451000000000000090D0030090D00301000000D4
:08452000100000000000000083
:040000050800029954
:00000001FF
